:100000000C942A000C9400000C9400000C94000046
:100010000C9400000C9400000C9400000C94000060
:100020000C9400000C9400000C9400000C94000050
:100030000C9400000C9400000C9400000C94000040
:100040000C9400000C9400000C9400000C94000030
:100050000C940000F894EE27ECBBF1E0FBBFEBBF83
:10006000E5BF8DE0A2E0BB27ED938A95E9F780E03C
:1000700098E0A0E6ED930197E9F7EFE5EDBFE8E042
:10008000EEBFC0E6D2E00C9445002897E3ECEC8389
:10009000E5EFED83E8E4EE83E0E4EF83E0E0EABB44
:1000A000EBBBE7BBE8BBE4BBE5BBE1BBE2BBE3BF4B
:1000B000E2BFECBFEFBDEEBDEDBDECBDE7BDE6BD03
:1000C000EBBDEABDE9BDE8BDE2BDE5BDE4BDE3BD14
:1000D000E9BFE5BFE4BFEAB9E0E8E8B9E0E0E0BFC6
:1000E000E6B9EDB9E6BF0AE010E0EC81FD816E8172
:1000F0007F81A0E0B0E080E090E412D00E948B010C
:100100000E5F1F4FEC81FD816E817F81A0E0B0E02A
:1001100080E490E405D00E94CB009F01E4CFFFCFA4
:100120000E943001DF01CB01F8010E9486010E948C
:1001300002010E9430010895552342F4503811F411
:10014000E0FF04C03196691F791F6BF050E8572714
:1001500011F45F9373C05F3F31F0660F000C579549
:100160006795752F08955F9300200AF073C06CC0E7
:1001700050E8192E1522880F991F9527550F87953E
:1001800050E8072E0522660F771F7527550F6795D4
:100190000895689401C0E8945F93F2DF703818F016
:1001A0007F3F08F44BC056E1571BAAF451955830D5
:1001B0000EF4593030F0EFEFFFEF6FEF7FE777F994
:1001C0001AC077275523B9F0EE0FFF1F661F771F60
:1001D0005A95D1F710C07727583028F0EF2FF62F17
:1001E000672F5850F9CF552331F076956795F795DD
:1001F000E7955A95D1F700200AF480D05F910895D1
:10020000689401C0E894309760407040B1F00024D9
:1002100026F0772312F4009471D0172E7EE111207E
:1002200032F07A95EE0FFF1F661F111CF9CFEF2FEA
:10023000F62F612D5F938ADF5F910895EE27FF27E8
:10024000662777275F910895EFEFFFEF6FE77FEF66
:100250005F910895EFEFFFEF6FE77FE75F910895FC
:100260005F9386DF703851F3903841F3012408948E
:10027000791F23F41CF300203AF3ECCF0F921F9365
:100280002F933F934F93112722279927689FA0010F
:100290008F9F302D410D591F6B9F300D411D591FF0
:1002A0008E9F27D0BF9F25D06A9F23D0BE9F1DD091
:1002B000AF9F1BD0AE9F110D291F391F491F591F1A
:1002C000E32FF42F652F522F4F913F912F911F91C4
:1002D0000F9066232AF0550FEE1FFF1F661F02C006
:1002E00073954BF229DF5F910895100D211D391F81
:1002F00002C0200D311D491F591F0895F0956095CA
:100300007095E195FF4F6F4F7F4F08956F2F660FE8
:10031000660B762F0895E883F9836A837B830895BB
:00000001FF
