:080000000C9441000C94000077
:100008000C9400000C9400000C9400000C94000068
:100018000C9400000C9400000C9400000C94000058
:100028000C9400000C9400000C9400000C94000048
:100038000C9400000C9400000C9400000C94000038
:100048000C9400000C9400000C9400001027E803A6
:1000580064000A00010000100001100001006400A3
:100068004E6F2069733A2025640080C002000400A6
:1000780066000200800272000000F894EE27ECBBD4
:10008800F1E0FBBFEBBFE5BF8DE0A2E0BB27ED933E
:100098008A95E9F780E098E0A0E6ED930197E9F703
:1000A800E4E7F0E085919591009761F0A591B5910D
:1000B80005901590BF01F00105900D920197E1F7A9
:1000C800FB01F0CFEFE5EDBFE8E0EEBFC0E6D2E020
:1000D8000C946E00E0E0EABBEBBBEFEFE7BBE0E0BF
:1000E800E8BBE4BBE5BBE1BBE2BBE3BFE2BFECBFFF
:1000F800EFBDEEBDEDBDECBDE7BDE6BDEBBDEABDB8
:10010800E9BDE8BDE2BDE5BDE4BDE3BDE9BFE5BFCE
:10011800E4BFEAB9E0E8E8B9E0E0E0BFE6B9EDB984
:10012800E6BFA0E10E94C1020E948F02E3E0EA93C9
:10013800A0E00E948202E0E6F2E0FA93EA93E8E6A1
:10014800F0E0FA93EA93F2010E9454030E946103DB
:1001580084E00E942E022896A0E6B2E00E94B00237
:10016800A0E1B7E20E944203DFCFFFCFBA93AA9380
:100178001A930A93AA81BB8112960E945903309759
:1001880059F1AA81BB8114960E9459038F013097B7
:1001980061F00230E0E01E0798F0F80131978F0116
:1001A800AA81BB811496ED93FC93AA81BB81129618
:1001B800ED91FD913196FE93EE933197AC81A0833A
:1001C800AA81BB810E945903FF232AF0ED91FD917A
:1001D8003196FE93EE9306C0AA81BB81EFEFFFEF45
:1001E800ED93FC931981088125960895BA93AA93F3
:1001F80026970E94660310E0AC85BD85E0E0F0E03C
:10020800ED93FC93EA89FB893196EA8BFB8B319756
:10021800E4912E2FE03009F415C1E12FE03039F4D4
:10022800253211F411E002C00E9408030AC1E1302E
:10023800A9F4253219F40E94080302C112E040E033
:1002480000E02D3211F401E0FCC02B3211F44BE236
:10025800F8C0203211F440E2F4C002C0E23039F4B0
:1002680050E013E0203311F40068EBC003C0E33022
:1002780009F0E7C0203310F02A3308F007C0AAE0DD
:100288005A9F502DE22FE0535E0FDBC0E22FE3367A
:1002980049F40E940F03E889F989A481AA930E946E
:1002A8001503CEC0E33741F40E940F030E941B03DD
:1002B8000E94EF021E2F0AC0E03761F40E940F036C
:1002C8000E941B030E94FB021E2F086002600F772A
:1002D80030E034C0E43611F0E93611F4046002C0AD
:1002E800E53731F4E4E5F0E0EE83FF8315E00CC078
:1002F800E83511F4086003C0E83709F0A1C0EEE55D
:10030800F0E0EE83FF8314E002FF14C00E940F03A5
:100318000E942503AB85AA233AF4EA85FB850E944F
:100328005003EA87FB874DE2403011F01F5F01C0A0
:100338000B7F04C00E940F030E94250300FD11C01B
:10034800151778F407FF08C002FF04C00B7F242F9D
:10035800115001C020E301C020E20E94080351505F
:10036800EFCF312F01FF17C03030A1F003FF06C0D7
:10037800EE81FF812591EE83FF8305C0AE81BF81A9
:100388002D91AE83BF830E940803503009F051506D
:100398003150EACF4BC020E3EE81FF810E945D031C
:1003A800E887F987EE81FF813296EE83FF83E8853F
:1003B800F985AA85BB85AE17BF0750F02F5FA885C2
:1003C800B985EA85FB85EA1BFB0BEA87FB87EFCF3C
:1003D8002A3328F003FF02C0295F01C0295D04FD0C
:1003E8001AC0213320F4A885B985119709F409C0EA
:1003F800531710F000FF01C013C020E207FF0BC025
:1004080020E3006102FF07C00B7F4A930E94150397
:10041800503009F051500E940803503009F05150F3
:100428003150A885B985129708F0B5CF00FF08C0EC
:10043800503031F05150E0E2EA930E941503F8CFB2
:1004480010E0E0CEAC85BD850E9459030E946D0383
:1004580064960895FF92F82E26970E9468030E94DA
:100468002D03309719F4EFEFFFEF23C0DE01169646
:100478000E944C038D010E942D03EE83FF83E0E070
:10048800E887E987DE011A960E944C030E94590307
:10049800FA93EA931A930A93EAEBF0E0FA93EA9351
:1004A800DE011A96A3DE9F01AE81BF81E0E0EC93E6
:1004B800F9010E946F032A96FF900895AA93E8B362
:1004C800EF70AE2FE881E07FEA2BE8BB82E18A95E6
:1004D800F1F7C19A82E18A95F1F7C19882E18A958C
:1004E800F1F777C0AA93A881E9DFE881E295E8836C
:1004F800A881E4DF88EB8A95F1F76BC0AA93E881BD
:10050800F0E0E058FD4FE081A981AE0FEBDF798084
:10051800688022960895A2E00E943403ACE0E2DFEE
:10052800A1E00E943403E0E06E2E7E2E0895AA9387
:10053800A881AA3011F0791448F0E0E0EA936394B6
:10054800A62DDCDFA881AA3009F443C07394C09AB1
:10055800A881C8DFC0983DC0BA93AA931A93A9810D
:10056800BA81ED91A983BA831E2FE03019F0A12F2B
:10057800DEDFF5CF188123960895AA93E7B3E06FDD
:10058800E7BBB99AB89ABA9AC198C098C2989880A5
:10059800E881E058E0938202E881E054E093830226
:1005A800A4E1B0E00E9442030E943A030E943A0389
:1005B8000E943A03A0E282DF84E191E00197F1F71B
:1005C800A8E290DFA4E08EDFA5E88CDFA6E08ADF52
:1005D800A2DF21960895BA93AA93A991B991EE271B
:1005E800FF276D91662311F03196FBCF0895BA93DA
:1005F800AA93AA27BB27E991F9910590002011F049
:100608001196FBCFFD0108952A93AD85BE85EF8530
:10061800F88909950895E889F9893497E88BF98B61
:100628000895AD85BE85EF85F88909950895A8894F
:10063800B98914960E945903EE83FF83AE81BF8166
:100648000895A889B98914960E945903EA87FB87F7
:100658000895DE011C960E944C030E9459030895D8
:100668000E947602A3E0B0E00C944203A0E30E944B
:10067800620284E191E00197F1F70895109639F04C
:10068800A8958DEC9AE00197F1F71197C9F70895AD
:100698000024AF0DB01D0895F195E195F04008953F
:1006A8006F2F660F660B762F0895ED91FC911197C9
:1006B80008950590F491E02D08957A936A93FA933A
:1006C800EA9308955A934A933A932A931A930A936A
:1006D80008955D814C813B812A81198108810895A3
:00000001FF
