:040000000C942A0032
:100004000C9400000C9400000C9400000C9400006C
:100014000C9400000C9400000C9400000C9400005C
:100024000C9400000C9400000C9400000C9400004C
:100034000C9400000C9400000C9400000C9400003C
:100044000C9400000C9400000C9400000C9400002C
:10005400F894EE27ECBBF1E0FBBFEBBFE5BF8DE00E
:10006400A2E0BB27ED938A95E9F780E098E0A0E64B
:10007400ED930197E9F7EFE5EDBFE8E0EEBFC0E6E9
:10008400D2E00C944C00BA93AA93E881F981359696
:1000940022960895E0E0EABBEBBBE7BBE8BBE4BB18
:1000A400E5BBE1BBE2BBE3BFE2BFECBFEFBDEEBD2E
:1000B400EDBDECBDE7BDE6BDEBBDEABDE9BDE8BD08
:1000C400E2BDE5BDE4BDE3BDE9BFE5BFE4BFEAB918
:1000D400E0E8E8B9E0E0E0BFE6B9EDB9E6BFEAE0A0
:1000E400F0E0E0936002F093610208D0E0E0E09376
:1000F4006002E093610202D0F2CFFFCFA0916002D0
:10010400B0916102C0DFE0936202F093630208954C
:00000001FF
