:080000000C9460000C94000058
:100008000C9400000C9400000C9400000C94000068
:100018000C9400000C9400000C9400000C94000058
:100028000C9400000C9400000C9400000C94000048
:100038000C9400000C9400000C9400000C94000038
:100048000C9400000C9400000C9400001027E803A6
:1000580064000A0001000010000110000100547241
:100068006166666963204C6967687473003430326E
:100078003233363231343300343030333632333081
:1000880033350050494E533A3466007374617475C1
:10009800733A4C25640080C00F00600266000B00B4
:1000A8006F0275000B007A028000080085028B0041
:1000B80002008D029E000000F894EE27ECBBF1E0F0
:1000C800FBBFEBBFE5BF8DE0A2E0BB27ED938A95B0
:1000D800E9F780E098E0A0E6ED930197E9F7E0EA18
:1000E800F0E085919591009761F0A591B591059003
:1000F8001590BF01F00105900D920197E1F7FB0102
:10010800F0CFEFE5EDBFE8E0EEBFC0E6D2E00C943B
:100118008D00A297EFEFEABBE0E0EBBBEFEFE7BBA8
:10012800E0E0E8BBEFE3E4BBE0E0E5BBE3EFE1BB25
:10013800E0E0E2BBE3BFE2BFECBFEFBDEEBDEDBD6B
:10014800ECBDE7BDE6BDEBBDEABDE9BDE8BDE2BD7E
:10015800E5BDE4BDE3BDE9BFE5BFE4BFEAB9E0E85A
:10016800E8B9E0E0E0BFE6B9EDB9E6BFA4E168D1DF
:1001780035D1E3E0EA93A0E024D1A0E6B2E04FD184
:10018800E5E0EA93A1E01DD1AFE6B2E048D1E5E0B1
:10019800EA93A2E016D1AAE7B2E041D1E0E0EA93FF
:1001A800A3E00FD1A5E8B2E03AD100E010E020E0EA
:1001B80030E0C29AC59AA89AAB9AEBE0EA93A3E01A
:1001C80000D1FE01FA93EA93E3E9F0E0FA93EA93A7
:1001D800F80131960E9464040E94710484E00E9430
:1001E800C6032896DE011BD1E3E0F0E0E217F3072F
:1001F80021F420E030E00F5F1F4FE4E0F0E0E0176B
:10020800F10711F400E010E0002E012A89F4022E13
:10021800032A21F4C298C398C49A09C00E941304FF
:1002280019F4C298C39A02C0C29AC398C4983AC033
:10023800E1E0F0E0E017F10779F4022E032A11F467
:10024800C59807C00E94130419F4C598C69A02C03D
:10025800C59AC698C79826C0E2E0F0E0E017F10713
:1002680089F4022E032A21F4A898A998AA9A09C009
:100278000E94130419F4A898A99A02C0A89AA998E8
:10028800AA9810C0022E032A21F4AB98AC98AD9A14
:1002980009C00E94130419F4AB98AC9A02C0AB9A37
:1002A800AC98AD982F5F3F4FE0E0E8A3E9A3A8A181
:1002B800B9A1A031E7E2BE070CF061C040E050E010
:1002C8004830E0E05E070CF054C0042E052A31F4F3
:1002D800E0ECEBBBDF98C098C19848C0E1E0F0E0E3
:1002E800E417F50729F4E0ECEBBBDF98C0983DC0B4
:1002F800E2E0F0E0E417F50731F4E0ECEBBBDF985F
:10030800C09AC19833C0E3E0F0E0E417F50721F4A0
:10031800E0ECEBBBDF9828C0E4E0F0E0E417F50779
:1003280031F4E0ECEBBBDF9AC098C1981FC0E5E060
:10033800F0E0E417F50729F4E0ECEBBBDF9AC0988E
:1003480014C0E6E0F0E0E417F50731F4E0ECEBBBAD
:10035800DF9AC09AC1980AC0E7E0F0E0E417F50711
:1003680029F4E0ECEBBBDF9AC09AC19A4F5F5F4F6C
:10037800A7CFE8A1F9A13196E8A3F9A398CF1DCF9B
:10038800FFCFAA93E2B3EF70AE2FE881E07FEA2BAC
:10039800E2BB82E18A95F1F7919A82E18A95F1F7B9
:1003A800919882E18A95F1F777C0AA93A881E9DF4D
:1003B800E881E295E883A881E4DF88EB8A95F1F784
:1003C8006BC0AA93E881F0E0E357FD4FE081A98173
:1003D800AE0FEBDF5980488022960895A2E00E9474
:1003E8001804ACE0E2DFA1E00E941804E0E04E2E21
:1003F8005E2E0895AA93A881AA3011F0571448F0E8
:10040800E0E0EA934394A42DDCDFA881AA3009F444
:1004180043C05394909AA881C8DF90983DC0BA937E
:10042800AA931A93A981BA81ED91A983BA831E2F41
:10043800E03019F0A12FDEDFF5CF1881239608955B
:10044800AA93E1B3E06FE1BB899A889A8A9A919856
:10045800909892987880E881E058E0938F02E8813C
:10046800E054E0939002A4E1B0E00E9452040E949C
:100478001E040E941E040E941E04A0E282DF84E182
:1004880091E00197F1F7A8E290DFA4E08EDFA5E8FC
:100498008CDFA6E08ADFA2DF21960895BA93AA939B
:1004A8001A930A93AA81BB8112960E946904309715
:1004B80059F1AA81BB8114960E9469048F01309773
:1004C80061F00230E0E01E0798F0F80131978F01E3
:1004D800AA81BB811496ED93FC93AA81BB811296E5
:1004E800ED91FD913196FE93EE933197AC81A08307
:1004F800AA81BB810E946904FF232AF0ED91FD9136
:100508003196FE93EE9306C0AA81BB81EFEFFFEF11
:10051800ED93FC931981088125960895BA93AA93BF
:1005280026970E94760410E0AC85BD85E0E0F0E0F7
:10053800ED93FC93EA89FB893196EA8BFB8B319723
:10054800E4912E2FE03009F415C1E12FE03039F4A1
:10055800253211F411E002C00E9426040AC1E130DC
:10056800A9F4253219F40E94260402C112E040E0E1
:1005780000E02D3211F401E0FCC02B3211F44BE203
:10058800F8C0203211F440E2F4C002C0E23039F47D
:1005980050E013E0203311F40068EBC003C0E330EF
:1005A80009F0E7C0203310F02A3308F007C0AAE0AA
:1005B8005A9F502DE22FE0535E0FDBC0E22FE33647
:1005C80049F40E942D04E889F989A481AA930E941C
:1005D8003304CEC0E33741F40E942D040E9439044D
:1005E8000E94FA031E2F0AC0E03761F40E942D040E
:1005F8000E9439040E9406041E2F086002600F77CB
:1006080030E034C0E43611F0E93611F4046002C079
:10061800E53731F4E4E5F0E0EE83FF8315E00CC044
:10062800E83511F4086003C0E83709F0A1C0EEE529
:10063800F0E0EE83FF8314E002FF14C00E942D0453
:100648000E944304AB85AA233AF4EA85FB850E94FD
:100658006004EA87FB874DE2403011F01F5F01C05C
:100668000B7F04C00E942D040E94430400FD11C0AA
:10067800151778F407FF08C002FF04C00B7F242F6A
:10068800115001C020E301C020E20E94260451500D
:10069800EFCF312F01FF17C03030A1F003FF06C0A4
:1006A800EE81FF812591EE83FF8305C0AE81BF8176
:1006B8002D91AE83BF830E942604503009F051501B
:1006C8003150EACF4BC020E3EE81FF810E946D04D8
:1006D800E887F987EE81FF813296EE83FF83E8850C
:1006E800F985AA85BB85AE17BF0750F02F5FA8858F
:1006F800B985EA85FB85EA1BFB0BEA87FB87EFCF09
:100708002A3328F003FF02C0295F01C0295D04FDD8
:100718001AC0213320F4A885B985119709F409C0B6
:10072800531710F000FF01C013C020E207FF0BC0F1
:1007380020E3006102FF07C00B7F4A930E94330445
:10074800503009F051500E942604503009F05150A1
:100758003150A885B985129708F0B5CF00FF08C0B9
:10076800503031F05150E0E2EA930E943304F8CF60
:1007780010E0E0CEAC85BD850E9469040E947D042E
:1007880064960895FF92F82E26970E9478040E9496
:100798004B04309719F4EFEFFFEF23C0DE011696F4
:1007A8000E945C048D010E944B04EE83FF83E0E00D
:1007B800E887E987DE011A960E945C040E946904B2
:1007C800FA93EA931A930A93E2E5F2E0FA93EA932A
:1007D800DE011A96A3DE9F01AE81BF81E0E0EC93B3
:1007E800F9010E947F042A96FF900895BA93AA936C
:1007F800A991B991EE27FF276D91662311F03196E3
:10080800FBCF0895BA93AA93AA27BB27E991F99138
:100818000590002011F01196FBCFFD010895E1E04D
:10082800F0E0E217F30708950E94D901A3E0B0E0D1
:100838000C945204A0E30E94C50184E191E0019761
:10084800F1F708952A93AD85BE85EF85F889099556
:100858000895E889F9893497E88BF98B0895AD856F
:10086800BE85EF85F88909950895A889B9891496F0
:100878000E946904EE83FF83AE81BF810895A88931
:10088800B98914960E946904EA87FB870895DE01F6
:100898001C960E945C040E9469040895109639F021
:1008A800A8958DEC9AE00197F1F71197C9F708958B
:1008B8000024AF0DB01D0895F195E195F04008951D
:1008C8006F2F660F660B762F0895ED91FC911197A7
:1008D80008950590F491E02D08957A936A93FA9318
:1008E800EA9308955A934A933A932A931A930A9348
:1008F80008955D814C813B812A8119810881089581
:00000001FF
