:020000000C945E
:1000020040000C9400000C9400000C9400000C942E
:1000120000000C9400000C9400000C9400000C945E
:1000220000000C9400000C9400000C9400000C944E
:1000320000000C9400000C9400000C9400000C943E
:1000420000000C9400000C9400000C9400000C942E
:1000520000000A003F065B4F666D7D077F6F01005F
:100062002D4E414E00494E460000010060025400F0
:100072000A006C0256000100760260000000F8944B
:10008200EE27ECBBF1E0FBBFEBBFE5BF8DE0A2E0EA
:10009200BB27ED938A95E9F780E098E0A0E6ED931F
:1000A2000197E9F7ECE6F0E085919591009761F010
:1000B200A591B59105901590BF01F00105900D92A3
:1000C2000197E1F7FB01F0CFEFE5EDBFE8E0EEBF0E
:1000D200C0E6D2E00C948600AA93E981F0E0E459EC
:1000E200FD4FE081EBBBE881E150A1E00E940305F6
:1000F200E095E5BBB0E00E942703EFEFE5BBA0E08F
:10010200B0E00E94270322960895EFEFEABBE0E0F9
:10011200EBBBEFE0E7BBE0E0E8BBE3E0E4BBE0E041
:10012200E5BBE1BBE2BBE3BFE2BFECBFEFBDEEBDAF
:10013200EDBDECBDE7BDE6BDEBBDEABDE9BDE8BD89
:10014200E2BDE5BDE4BDE3BDE9BFE5BFE4BFEAB999
:10015200E0E8E8B9E0E0E0BFE6B9EDB9E6BFC09A91
:10016200E0916002F0916102309781F5EAE0F0E0FF
:10017200E0936002F0936102E0916602F0916702FF
:100182003196A3E0B0E00E943F05E0936602F0934F
:100192006702E0E0F0E060E070E40E946B05E0914D
:1001A2006602F09167020E94CF02DF01CB010E943A
:1001B2007D020E948103E8BBE0916602A1E0B0E00B
:1001C2000E940B05E0936A02F0936B020E94D40234
:1001D2000E942C05E0936202F09363020E94D40213
:1001E2000E943105E0936402F0936502A0E6B2E05A
:1001F200ED91FD913197FE93EE93E0E0E09368027A
:10020200E0936902A0916802B0916902D29794F4D6
:10021200E0916202EA93A1E05FDFE0916402EA9377
:10022200A2E05ADFA8E6B2E0ED91FD913196FE938D
:10023200EE93E8CF95CFFFCF0E9470057B816A8154
:10024200F981E88177FB770F67FD7160972F9E57E1
:1002520081F078F0983190F4AA27BB278827089478
:100262008795B795A7959A95D1F7EA23FB2368233B
:1002720005C0E8947727EE27FF2766276F777695E4
:1002820008F4606877F9A991B99189919991EA176F
:10029200FB076807790797FB08950E9470050E9483
:1002A20061050E941D010E94660519F40E94DB028D
:1002B20005C0E6F70E94DB020E94DE022496089542
:1002C2000E94700524971A930A930E94E5020E94E5
:1002D20086052CF0EFEFFFEF6FE77FEF71C00E9412
:1002E200EA020E946B05ADB7BEB711971F930F9339
:1002F2000E9431030F911F910E94EF020E94E502BA
:10030200E3EFF4E065E37FE30E94D70440F40E9448
:10031200F4020E94F4030E94EF02015010400E9476
:10032200EA020E94DE027F936F93FF93EF930E9493
:10033200EA02A0E0B0E080E89FE30E94F403AF91FC
:10034200BF918F919F910E9492040E94EF020E949E
:10035200F4020E94F602A6E2B2E485E69FE30E945E
:10036200FD02EEE4F1E164E570E40E9402030E9402
:10037200E5020E9444047F936F93FF93EF930E94E0
:100382000703ADE4B1E184ED9FE30E94ED03AF9179
:10039200BF918F919F910E9492047F936F93FF93DD
:1003A200EF93F8010E94CF02A8E1B2E781E39FE355
:1003B2000E944404AF91BF918F919F910E94F403D8
:1003C200198108812A9608950E94700528971A9328
:1003D2000A930E940C03E0E5FCEA6EEA72EC0E94CA
:1003E200D70418F40E94110383C0EA85FB856C854B
:1003F2007D850E94820529F4E0E0F0E060E87FE379
:1004020077C00E940C03E8E1F2E761EB72E40E941C
:10041200D70409F008F405C0EFEFFFEF6FE77FE7BD
:1004220067C00E940C03EBE3FAEA68EB7FE30E94E9
:100432004404EA87FB876C877D870E940C032DDFCB
:100442000E9483038F010E940C030E94CF020E942C
:100452000203DF01CB01E0E0F0E060E07FE30E9415
:1004620002030E94EF020E94F4020E94F602ADE62D
:10047200BCE48CE69DE30E944404A6EAB3EE86EE59
:1004820090E40E94F4030E94E5020E9444040E9448
:10049200EF020E940703A8E2BDE886EA91E40E9407
:1004A200F403EA83FB836C837D830E94EA02AA81C0
:1004B200BB818C819D810E94F403A3EFB4E085EBA4
:1004C2009FE30E9444047F936F93FF93EF930E94F4
:1004D200E5020E9407030E94ED03AF91BF918F9145
:1004E2009F910E9492040E946B05D8010E944203D0
:1004F200198108812E9608950E94700524970E9402
:1005020016030E94820519F40E94110345C0A885B2
:10051200B9858A859B850E94860594F40E941B03F7
:100522000E94820529F4E0E0F0E060E87FE334C055
:10053200A885B9858A859B850E94200345DF2CC04A
:100542000E941B03DE010E9483030E9457050E9442
:10055200DB020E94BA03DF01CB010E941B030E944F
:100562008C0519F00E94110317C00E9416030E9405
:100572004E03DF01CB010E94200326DFE887F987C3
:100582006A877B87E881E17019F40E94160304C030
:100592000E9416030E944E032C9608950E94140591
:1005A2000E94BA030895A0916002B0916102EAE04C
:1005B200F0E008950E945C050895A0E0B0E080E8B4
:1005C2009FE30E94ED030895AE81BF8188859985DE
:1005D2000895EE81FF81688579850895EE83FF8312
:1005E200688779870895F5DFEFCF0E944404EA8394
:1005F200FB836C837D8308950E944404DF01CB0159
:1006020008950E9475050E94ED030895EA81FB8119
:100612006C817D810895AA85BB858C859D85089511
:10062200E0E0F0E060E070E00895E885F9856A8531
:100632007B850895EC81FD816E817F8108950E9402
:100642006101AC81BD818E819F81D6CF109639F038
:10065200A8958DEC9AE00197F1F71197C9F70895E3
:10066200E991F9916991799177FB660F771F882754
:100672007E57880B7D938C937EE7769567956EF017
:100682000895E991F9916991799177FB660F771F46
:100692007A0F769567950EF0089530976040704016
:1006A20009F070580895552342F4503811F4E0FFD0
:1006B20004C03196691F791F6BF050E8572711F477
:1006C2005F93CFC05F3F31F0660F000C579567957F
:1006D200752F08955F9300200AF0CFC0C8C050E87C
:1006E200192E1522880F991F9527550F879550E8C7
:1006F200072E0522660F771F7527550F67950895F8
:10070200689401C0E8945F93F2DF703818F07F3F7D
:1007120008F4A7C056E1571BAAF4519558300EF4BD
:10072200593030F0EFEFFFEF6FEF7FE777F91AC044
:1007320077275523B9F0EE0FFF1F661F771F5A95D3
:10074200D1F710C07727583028F0EF2FF62F672FF8
:100752005850F9CF552331F076956795F795E7957F
:100762005A95D1F700200AF445D15F910895689413
:1007720001C0E894309760407040B1F0002426F048
:10078200772312F4009436D1172E7EE1112032F035
:100792007A95EE0FFF1F661F111CF9CFEF2FF62F70
:1007A200612D5F938ADF5F9108954F93AF01FD0141
:1007B200DA01AB01BC01CA01402D012C142E4F916C
:1007C2000895EA0FFB1F681F0895E095F095609564
:1007D200EF5FFF4F6F4F08955F9381DF903871F1A4
:1007E20050E8152604C05F937ADF903839F17038EB
:1007F20021F1572F591B2BF112F4D7DFFACF5831C1
:1008020018F0AA27BB278827583028F0AB2FB82F1B
:1008120088275850F9CF552329F08695B795A79583
:100822005A95D9F7502D512572F0CBDF38F46795E0
:10083200F795E795739513F420C0B7DF3EDF5F911C
:100842000895D8F7FBCFEA1BFB0B680B51F010F4AD
:100852000094BBDF662392F3EE0FFF1F661F7A95AB
:10086200CBF7EE27FF27662777275F910895EFEFF3
:10087200FFEF6FE77FEF5F910895EFEFFFEF6FE715
:100882007FE75F9108955F932ADF703851F39038C4
:1008920041F301240894791F23F41CF300203AF356
:1008A200ECCF0F921F932F933F934F931127222741
:1008B2009927689FA0018F9F302D410D591F6B9F73
:1008C200300D411D591F8E9F27D0BF9F25D06A9F93
:1008D20023D0BE9F1DD0AF9F1BD0AE9F110D291FED
:1008E200391F491F591FE32FF42F652F522F4F91A4
:1008F2003F912F911F910F9066232AF0550FEE1F03
:10090200FF1F661F02C073954BF2CDDE5F91089503
:10091200100D211D391F02C0200D311D491F591F05
:1009220008955F93DCDE703821F411200AF49FCF22
:10093200A4CF903809F495CF01240894970B1BF4A7
:10094200D4F30020F3CF792F1F932F933F934F932C
:1009520011241127222733274427552790E2AE1767
:10096200BF078607410730F0AE1BBF0B860B410B5A
:10097200089401C08894551F221F331F111CAA1FFF
:10098200BB1F881F441F9A9551F7F901612D4F91A2
:100992003F912F911F91662332F0550FEE1FFF1FDB
:1009A200661F7A9543F27FDE5F91089599239AF04C
:1009B200772342F0971748F029F4AE17BF0786074E
:1009C20020F031F0989488940895989408940895AA
:1009D2001894889408957723C2F7971798F3A9F784
:1009E200EA17FB07680788F399F3ECCFF195E195D5
:1009F200F0400895F09560957095E195FF4F6F4F27
:100A02007F4F0895EE230E2EEA2F19F0EE0F0A946F
:100A1200E9F70895EE230E2EFD0121F0EE0FFF1FE0
:100A22000A94E1F708956F2F660F660B762F0895EB
:100A32000024112490E1AA0FBB1F001C111C0E1AE6
:100A42001F0A18F40E0E1F1E01C0A1609A9599F795
:100A5200FD01D00108951CD0EBDF0EF4C7DF08952D
:100A6200E894B7FF04C0A095B09511966894F7FD7D
:100A7200BDDFDEDFFD010EF4B9DF0895E894F7FF74
:100A820002C0B4DF6894EA23FB230EF4AFDF0895BB
:100A9200E894F7FF02C0AADF6894B7FF06C0A095EA
:100AA200B095119600F8039400FA0895ED93FD9322
:100AB2006D937C930895E881F9816A817B81089521
:100AC200A881B9818A819B810895E883F9836A8329
:100AD2007B8308957A936A93FA93EA9308959A939B
:100AE2008A93BA93AA930895182E862F612D192EF0
:100AF200972F712D1B2EBF2FF12D1A2EAE2FE12D08
:100B02000895309760407040089500240A160B063D
:100B1200080609060895EA17FB076807790708958A
:00000001FF
