:0E0000000C9446000C9400000C9400000C942C
:10000E0000000C9400000C9400000C9400000C9462
:10001E0000000C9400000C9400000C9400000C9452
:10002E0000000C9400000C9400000C9400000C9442
:10003E0000000C9400000C9400000C9400000C9432
:10004E0000000C9400004D485472587A2020202055
:10005E002020202020200048656C6C6F20446561B4
:10006E00722020202020200080C011006002540049
:10007E001100710265000200820276000000F89401
:10008E00EE27ECBBF1E0FBBFEBBFE5BF8DE0A2E0DE
:10009E00BB27ED938A95E9F780E098E0A0E6ED9313
:1000AE000197E9F7E8E7F0E085919591009761F007
:1000BE00A591B59105901590BF01F00105900D9297
:1000CE000197E1F7FB01F0CFEFE5EDBFE8E0EEBF02
:1000DE00C0E6D2E00C947300E0E0EABBEBBBEFEFBE
:1000EE00E7BBE0E0E8BBE4BBE5BBE1BBE2BBE3BFE3
:1000FE00E2BFECBFEFBDEEBDEDBDECBDE7BDE6BDB5
:10010E00EBBDEABDE9BDE8BDE2BDE5BDE4BDE3BDC5
:10011E00E9BFE5BFE4BFEAB9E0E8E8B9E0E0E0BF77
:10012E00E6B9EDB9E6BFA0E16AD039D0A0E6B2E0FB
:10013E0055D0A1E7B2E052D0A0E1B7E20E943D0156
:10014E00F4CFFFCFAA93E8B3EF70AE2FE881E07F34
:10015E00EA2BE8BB82E18A95F1F7C19A82E18A9592
:10016E00F1F7C19882E18A95F1F772C0AA93A8813E
:10017E00E9DFE881E295E883A881E4DF88EB8A95E0
:10018E00F1F766C0AA93E881F0E0EE57FD4FE081EB
:10019E00A981AE0FEBDF5980488022960895A2E028
:1001AE0059D0ACE0E3DFA1E055D0E0E04E2E5E2E5C
:1001BE000895AA93A881AA3011F0571448F0E0E0F0
:1001CE00EA934394A42DDEDFA881AA3009F440C03F
:1001DE005394C09AA881CADFC0983AC0BA93AA9322
:1001EE001A93A981BA81ED91A983BA831E2FE030AB
:1001FE0019F0A12FDEDFF5CF188123960895AA936B
:10020E00E7B3E06FE7BBB99AB89ABA9AC198C098AB
:10021E00C2987880E881E058E0938402E881E05447
:10022E00E0938502A4E1B0E00E943D0118D017D002
:10023E0016D0A0E287DF84E191E00197F1F7A8E202
:10024E0095DFA4E093DFA5E891DFA6E08FDFA7DFBF
:10025E00219608958BDFA3E0B0E00C943D01A0E35E
:10026E0071DF84E191E00197F1F70895109639F06E
:10027E00A8958DEC9AE00197F1F71197C9F70895BB
:00000001FF
