:0C0000000C9433000C9400000C940000E1
:10000C000C9400000C9400000C9400000C94000064
:10001C000C9400000C9400000C9400000C94000054
:10002C000C9400000C9400000C9400000C94000044
:10003C000C9400000C9400000C9400000C94000034
:10004C000C9400000C9400003F065B4F666D7D071E
:10005C007F6F0A00600254000000F894EE27ECBB9E
:10006C00F1E0FBBFEBBFE5BF8DE0A2E0BB27ED935A
:10007C008A95E9F780E098E0A0E6ED930197E9F71F
:10008C00EEE5F0E085919591009761F0A591B59121
:10009C0005901590BF01F00105900D920197E1F7C5
:1000AC00FB01F0CFEFE5EDBFE8E0EEBFC0E6D2E03C
:1000BC000C947A00AA93E981F0E0E05AFD4FE081BC
:1000CC00EBBBE881E150A1E00E94BE00E095E5BBEE
:1000DC00A0E0B0E00E94B400EFEFE5BBA0E0B0E020
:1000EC000E94B40022960895EFEFEABBE0E0EBBB70
:1000FC00E7BBE8BBEFE0E4BBE0E0E5BBE1BBE2BBA8
:10010C00E3BFE2BFECBFEFBDEEBDEDBDECBDE7BDA7
:10011C00E6BDEBBDEABDE9BDE8BDE2BDE5BDE4BDB4
:10012C00E3BDE9BFE5BFE4BFEAB9E0E8E8B9E0E068
:10013C00E0BFE6B9EDB9E6BFE5E0EA93A1E0BADFCE
:10014C00E3E0EA93A2E0B6DFE9E0EA93A3E0B2DFF2
:10015C00E0E0EA93A4E0AEDFEFCFFFCF109639F0EA
:10016C00A8958DEC9AE00197F1F71197C9F70895CE
:10017C00EE230E2EEA2F19F0EE0F0A94E9F70895EC
:00000001FF
