:100000000C9447000C9400000C9400000C94000029
:100010000C9400000C9400000C9400000C94000060
:100020000C9400000C9400000C9400000C94000050
:100030000C9400000C9400000C9400000C94000040
:100040000C9400000C9400000C9400000C94000030
:100050000C9400001027E80364000A00010000105F
:1000600000011000010000002564000080C00100B4
:100070002D4E414E00494E4600000100050066002D
:10008000020080026C00010084026E000000F894FF
:10009000EE27ECBBF1E0FBBFEBBFE5BF8DE0A2E0DC
:1000A000BB27ED938A95E9F780E098E0A0E6ED9311
:1000B0000197E9F7EAE7F0E085919591009761F003
:1000C000A591B59105901590BF01F00105900D9295
:1000D0000197E1F7FB01F0CFEFE5EDBFE8E0EEBF00
:1000E000C0E6D2E00C947400A0E10E9402010E94DC
:1000F000D000EFEFEABB88985BBA809902C05394B6
:100100001BC0E0E6F2E0FA93EA93E8E6F0E0FA9347
:10011000EA93E52DFF27662777270E94450384E0B1
:100120000E94A4022896E0E0EA93A0E00E94C300A7
:10013000A0E6B2E00E94F100A1E0B0E00E942B0333
:10014000DBCFFFCFAA93E5B3EF70AE2FE881E07F5E
:10015000EA2BE5BB88E28A95F1F7A99A88E28A95AD
:10016000F1F7A99888E28A95F1F778C0AA93A88157
:10017000E9DFE881E295E883A881E4DF8CE291E0A1
:100180000197F1F76BC0AA93E881F0E0E058FD4FCA
:10019000E081A981AE0FEADF498078802296089538
:1001A000A2E00E94F102ACE0E1DFA1E00E94F102D6
:1001B000E0E07E2E4E2E0895AA93A881AA3011F079
:1001C000461448F0E0E0EA937394A72DDCDFA881A1
:1001D000AA3009F443C04394A89AA881C7DFA8981D
:1001E0003DC0BA93AA931A93A981BA81ED91A983CC
:1001F000BA831E2FE03019F0A12FDEDFF5CF188172
:1002000023960895AA93E4B3E06FE4BBA19AA09A61
:10021000A29AA998A898AA986880E881E058E093E3
:100220008202E881E054E0938302A4E1B0E00E94FE
:100230002B030E94F7020E94F7020E94F702A0E23D
:1002400081DF88E592E00197F1F7A8E28FDFA4E073
:100250008DDFA5E88BDFA6E089DFA2DF2196089578
:10026000BA93AA931A930A93AA81BB8112960E9409
:100270003D03309759F1AA81BB8114960E943D033A
:100280008F01309761F00230E0E01E0798F0F8012E
:1002900031978F01AA81BB811496ED93FC93AA81BB
:1002A000BB811296ED91FD913196FE93EE933197BD
:1002B000AC81A083AA81BB810E943D03FF232AF069
:1002C000ED91FD913196FE93EE9306C0AA81BB811C
:1002D000EFEFFFEFED93FC931981088125960895C8
:1002E000BA93AA9326970E944A0310E0AC85BD8575
:1002F000E0E0F0E0ED93FC93EA89FB893196EA8B2C
:10030000FB8B3197E4912E2FE03009F415C1E12FDA
:10031000E03039F4253211F411E002C00E94FF02EE
:100320000AC1E130A9F4253219F40E94FF0202C18A
:1003300012E040E000E02D3211F401E0FCC02B326D
:1003400011F44BE2F8C0203211F440E2F4C002C0D4
:10035000E23039F450E013E0203311F40068EBC0D0
:1003600003C0E33009F0E7C0203310F02A3308F06F
:1003700007C0AAE05A9F502DE22FE0535E0FDBC06A
:10038000E22FE33649F40E940603E889F989A48143
:10039000AA930E940C03CEC0E33741F40E940603E7
:1003A0000E9412030E94D8021E2F0AC0E03761F497
:1003B0000E9406030E9412030E94E4021E2F08609E
:1003C00002600F7730E034C0E43611F0E93611F402
:1003D000046002C0E53731F4E4E5F0E0EE83FF832A
:1003E00015E00CC0E83511F4086003C0E83709F0E7
:1003F000A1C0EEE5F0E0EE83FF8314E002FF14C03D
:100400000E9406030E941C03AB85AA233AF4EA85E6
:10041000FB850E943903EA87FB874DE2403011F0EB
:100420001F5F01C00B7F04C00E9406030E941C03D3
:1004300000FD11C0151778F407FF08C002FF04C0C3
:100440000B7F242F115001C020E301C020E20E9445
:10045000FF025150EFCF312F01FF17C03030A1F014
:1004600003FF06C0EE81FF812591EE83FF8305C067
:10047000AE81BF812D91AE83BF830E94FF025030B9
:1004800009F051503150EACF4BC020E3EE81FF819B
:100490000E944103E887F987EE81FF813296EE835F
:1004A000FF83E885F985AA85BB85AE17BF0750F0A5
:1004B0002F5FA885B985EA85FB85EA1BFB0BEA87D8
:1004C000FB87EFCF2A3328F003FF02C0295F01C06A
:1004D000295D04FD1AC0213320F4A885B985119740
:1004E00009F409C0531710F000FF01C013C020E247
:1004F00007FF0BC020E3006102FF07C00B7F4A9398
:100500000E940C03503009F051500E94FF025030FD
:1005100009F051503150A885B985129708F0B5CF30
:1005200000FF08C0503031F05150E0E2EA930E94E1
:100530000C03F8CF10E0E0CEAC85BD850E943D03F2
:100540000E94510364960895FF92F82E26970E9408
:100550004C030E942403309719F4EFEFFFEF23C000
:10056000DE0116960E9435038D010E942403EE835E
:10057000FF83E0E0E887E987DE011A960E943503F1
:100580000E943D03FA93EA931A930A93E0E3F1E0A1
:10059000FA93EA93DE011A96A3DE9F01AE81BF8132
:1005A000E0E0EC93F9010E9453032A96FF9008952E
:1005B000BA93AA93A991B991EE27FF276D9166236B
:1005C00011F03196FBCF0895BA93AA93AA27BB27BF
:1005D000E991F9910590002011F01196FBCFFD01F2
:1005E00008950E94B600A3E0B0E00C942B03A0E3B2
:1005F0000E94A20088E592E00197F1F708952A93FE
:10060000AD85BE85EF85F88909950895E889F98952
:100610003497E88BF98B0895AD85BE85EF85F88911
:1006200009950895A889B98914960E943D03EE831F
:10063000FF83AE81BF810895A889B98914960E946D
:100640003D03EA87FB870895DE011C960E9435036F
:100650000E943D030895109639F0A89580E797E130
:100660000197F1F71197C9F708950024AF0DB01D58
:100670000895F195E195F0400895ED91FC91119761
:1006800008950590F491E02D08957A936A93FA9372
:10069000EA9308955A934A933A932A931A930A93A2
:1006A00008955D814C813B812A81198108810895DB
:00000001FF
