:0C0000000C947C000C9400000C94000098
:10000C000C9400000C9400000C9400000C94000064
:10001C000C9400000C9400000C9400000C94000054
:10002C000C9400000C9400000C9400000C94000044
:10003C000C9400000C9400000C9400000C94000034
:10004C000C9400000C9400004B65795061642061A5
:10005C006E64204C43440050726F6A6563742100D7
:10006C003700380039002F00340036002A003100E8
:10007C00320033002D0030003D002B0080C00F00FB
:10008C006002540009006F026300020078026C00E9
:10009C0002007A026E0002007C02700002007E02F6
:1000AC0072000200800274000200820276000200DC
:1000BC0084026C00020086027800020088027A003A
:1000CC0002008A027C0002008C027E0002008E027A
:1000DC008000020090028200020092028400020062
:1000EC00940286000200960288000000F894EE2725
:1000FC00ECBBF1E0FBBFEBBFE5BF8DE0A2E0BB27A3
:10010C00ED938A95E9F780E098E0A0E6ED930197EE
:10011C00E9F7EAE8F0E085919591009761F0A591F7
:10012C00B59105901590BF01F00105900D920197C6
:10013C00E1F7FB01F0CFEFE5EDBFE8E0EEBFC0E685
:10014C00D2E00C94A900A0E11BD1DDD0E0E0E5BB2E
:10015C00E2BBEFEFE4BBEFE0E1BBE1E0EA93A0E050
:10016C00C1D0A0E6B2E0FBD0E4E0EA93A1E0BAD0C3
:10017C00AFE6B2E0F4D0A8ECB0E00E940402C3D029
:10018C00909A919829D1849B06C0A8E7B2E0E7D059
:10019C008499FECF17C0859B06C0AAE7B2E0DFD0DA
:1001AC008599FECF0FC0869B06C0ACE7B2E0D7D0D6
:1001BC008699FECF07C0879B05C0AEE7B2E0CFD0D3
:1001CC008799FECF9098919A07D1849B06C0A0E89E
:1001DC00B2E0C5D08499FECF17C0859B06C0A2E8BB
:1001EC00B2E0BDD08599FECF0FC0869B06C0A4E8B7
:1001FC00B2E0B5D08699FECF07C0879B05C0A6E8B4
:10020C00B2E0ADD08799FECF90989198929A93983E
:10021C00A5E0B0E00E940402849B06C0A8E8B2E00E
:10022C009ED08499FECF17C0859B06C0AAE8B2E089
:10023C0096D08599FECF0FC0869B06C0ACE8B2E085
:10024C008ED08699FECF07C0879B05C0AEE8B2E082
:10025C0086D08799FECF909891989298939AA5E022
:10026C00B0E00E940402849B04C04DD08499FECF60
:10027C0017C0859B06C0A0E9B2E071D08599FECF6E
:10028C000FC0869B06C0A2E9B2E069D08699FECF6A
:10029C0007C0879B05C0A4E9B2E061D08799FECF67
:1002AC006FCFFFCFAA93E5B3EF70AE2FE881E07F5D
:1002BC00EA2BE5BB8DE08A95F1F7A99A8DE08A953A
:1002CC00F1F7A9988DE08A95F1F784C0AA93A881DB
:1002DC00E9DFE881E295E883A881E4DF85E88A9587
:1002EC00F1F778C0AA93E881F0E0EA56FD4FE0817F
:1002FC00A981AE0FEBDFE981E0939A02E881E093EC
:10030C009B0222960895A2E06DD0ACE0DFDFA1E065
:10031C0069D0E0E0E0939B02E0939A020895AA93DF
:10032C00A881AA3031F0E0919C02A0919A02AE17FC
:10033C0060F0E0E0EA93A0919B02AF5FA0939B0278
:10034C00D1DFA881AA3009F445C0E0919A02EF5F91
:10035C00E0939A02A89AA881B9DFA8983BC0BA93F7
:10036C00AA931A93A981BA81ED91A983BA831E2FFE
:10037C00E03019F0A12FD3DFF5CF18812396089523
:10038C00AA93E4B3E06FE4BBA19AA09AA29AA998AD
:10039C00A898AA98E881E0939C02E058E093980210
:1003AC00E881E054E0939902A4E1B0E00E940402D9
:1003BC001ED01DD01CD0A0E275DF88EC90E0019718
:1003CC00F1F7A8E283DFA4E081DFA5E87FDFA6E0F8
:1003DC007DDF99DF2196089592989398A5E0B0E07F
:1003EC000C94040273DFA3E0B0E00C940402A0E3CD
:1003FC0059DF88EC90E00197F1F70895109639F0E9
:10040C00A89580ED97E00197F1F71197C9F708953A
:00000001FF
