:060000000C942A000C9490
:1000060000000C9400000C9400000C9400000C946A
:1000160000000C9400000C9400000C9400000C945A
:1000260000000C9400000C9400000C9400000C944A
:1000360000000C9400000C9400000C9400000C943A
:1000460000000C9400000C9400000C940000F8943E
:10005600EE27ECBBF1E0FBBFEBBFE5BF8DE0A2E016
:10006600BB27ED938A95E9F780E098E0A0E6ED934B
:100076000197E9F7EFE5EDBFE8E0EEBFC0E6D2E0B5
:100086000C945300BA93AA93E881E7B9369A8BE1A8
:100096008A95F1F7349BFECFE4B1F5B12296089527
:1000A600E0E0E7B9E3E0E6B9E0E0E0BF379AA1E0D7
:1000B600B0E0E8DFE0936002F0936102F8CFFFCF93
:00000001FF
