:040000000C944D000F
:100004000C9400000C9400000C9400000C9400006C
:100014000C9400000C9400000C9400000C9400005C
:100024000C9400000C9400000C9400000C9400004C
:100034000C9400000C9400000C9400000C9400003C
:100044000C9400000C9400000C9400000C9400002C
:100054002020202057454C434F4D4521202020206F
:100064000054454D503A202025332E3266002D4E43
:10007400414E000080C001002D4E414E00494E46C5
:1000840000001100600254000200850278000100A3
:1000940089027A000000F894EE27ECBBF1E0FBBF84
:1000A400EBBFE5BF8DE0A2E0BB27ED938A95E9F7AE
:1000B40080E098E0A0E6ED930197E9F7E6E8F0E048
:1000C40085919591009761F0A591B5910590159052
:1000D400BF01F00105900D920197E1F7FB01F0CF0C
:1000E400EFE5EDBFE8E0EEBFC0E6D2E00C94880097
:1000F400AA93E881E7B98BE18A95F1F7369A349BA4
:10010400FECF349AE4B1F5B10C94C704E0E0EABB45
:10011400EBBBE7BBE8BBE4BBE5BBE1BBE2BBE7B9D8
:10012400E3E8E6B9E0E0E0BFEDB9E6BFA0E10E9494
:100134009B040E946904A0E6B2E00E948A04ACE237
:10014400B1E00E94DA060E946904A0E0D1DF6627CC
:1001540077270E945007DF01CB01EFE6F2E163E06D
:1001640070E40E942808E0937102F0937202609395
:10017400730270937402E5E7F2E0FA93EA93E5E61A
:10018400F0E0FA93EA93E0917102F09172026091C7
:100194007302709174020E94110984E00E940804A1
:1001A4002896E0E0EA93A0E00E945C04A5E7B2E0B0
:1001B4000E948A04A4EFB1E00E94DA06C6CFFFCF02
:1001C400BA93AA931A930A93AA81BB8112960E94A6
:1001D400F808309729F1AA81BB8114960E94F80887
:1001E4008F01309761F00230E0E01E0780F0F801E3
:1001F40031978F01AA81BB811496ED93FC93AA8158
:10020400BB8112960E94D8053197AC81A083AA8144
:10021400BB810E94F808FF2312F00E94D80506C093
:10022400AA81BB81EFEFFFEFED93FC931981088165
:10023400259608950E94DE05E0E8EA83EFE3EB8368
:100244000E942E09EE85FF85EF3FAFEFFA0749F4D0
:10025400E885F985FA93EA93A2E7B0E00E94C9041D
:10026400B7C0EF3FAFE7FA0749F4E885F985FA9399
:10027400EA93A3E7B0E00E94C904AAC0AB85A73003
:1002840010F0E6E0EB871B85E12F1150E03019F008
:100294000E94E505F9CFEC85FD856E857F850E947A
:1002A400280921F430E00E94E5052DC03B850E9419
:1002B400F40509F008F40BC00E94E5050E94F4055A
:1002C40028F00E94FF050E940406F8CF0DC00E948A
:1002D400F40540F40E94FF050E9410060E941706D0
:1002E4003150F5CF0E94E505EC85FD856E857F854F
:1002F4000E941C060E9417060E94F40520F00E942A
:10030400FF050E94040610E0EB85E117A8F1AC811B
:10031400BD818E819F810E9423060E941C06DF01FD
:10032400CB010E942005EC83FD836E837F830E94B2
:10033400FF050E9428080E9417070E2F0E942A0614
:100344000E943106FF27662777270E945007AC8159
:10035400BD818E819F810E94DA070E94FF050E9461
:1003640036060E941706E12F1F5FE03069F60E94EF
:100374002A06EEE2EC93C8CF0E943B063197AA8589
:10038400A08330302CF43195A885B985EDE203C003
:10039400A885B985EBE2EC930E943B060E943B06DC
:1003A4003197BF01A32FEAE00E94B208E05DDB01B0
:1003B400EC930E943B063197BF01A32FEAE00E9411
:1003C400DC08E05DDB01EC93A885B985E0E0EC9303
:1003D4000E94350960960895BA93AA93EF9761979E
:1003E4000E942C0910E0FE01E85AFF4F0190F081B1
:1003F400E02DE887F987FE01EA5AFF4F0190F0816A
:10040400E02DEE83FF83AE81BF81E0E0F0E0ED9369
:10041400FC93DE01A45ABF4F0E94D8053197E491A2
:100424002E2FE03009F4E9C1E12FE03039F4253210
:1004340011F411E002C00E944106DEC1E130C1F4B2
:10044400253219F40E944106D6C112E0E0E0ED8B9A
:1004540000E02D3211F401E0CFC12B3219F4EBE2AC
:10046400ED8BCAC1203219F4E0E2ED8BC5C102C0A4
:10047400E23039F450E013E0203311F40068BCC1D9
:1004840002C0E33091F4203310F02A3308F007C09F
:10049400AAE05A9F502DE22FE0535E0FADC140E019
:1004A4002E3211F414E0A8C10FC0E43099F42033C3
:1004B40010F02A3308F008C00062AAE04A9F402DD9
:1004C400E22FE0534E0F98C12C3619F4026015E068
:1004D40093C103C0E53009F08FC1E22FE33659F42C
:1004E4000E9448060E944F060E944806A481AA93CF
:1004F4000E94560680C1E53411F0E53609F403C0C4
:10050400E63609F048C0FE017696EE87FF870E9422
:100514005C060E94FC080E9463060E946806AD8582
:10052400AA2332F0AD89AB3259F0A03281F017C062
:100534000E946A060E94E4060E946306EDE2ED8BC7
:1005440007FF05C0ED89EA930E94560608C0EE85B0
:10055400FF853196EE87FF873197AD89A08305FF2C
:1005640046E0263651F40E946A060E9411094A9315
:10057400AB89BC890E94370509C00E946A060E94A3
:1005840011094A932A93AC89BD8954DEFE017696FB
:100594000E946F061EC0E33739F40E9468060E9469
:1005A40077060E946F060EC0E037C1F40E94680609
:1005B4000E947706EE87FF87AE85BF850E94E2041E
:1005C4001E2F08600F77403011F0411708F001C06A
:1005D400142F40E0E0E0EC8B30E06DC0E43611F025
:1005E400E93611F4046002C0E537A1F4EAE0EC8BCB
:1005F40001FF08C0E0E0FAEC6AE97BE30E947C06B4
:100604001AE022C0E0E1F7E260E070E00E947C06BC
:1006140015E01AC0E83511F4086003C0E83709F0A2
:10062400EAC0E0E1EC8B01FF08C0E0E0F0E060E04C
:1006340070E10E947C0618E007C0E0E0F0E160E0B1
:1006440070E00E947C0614E0403011F00F7701C086
:1006540041E001FF08C00E9468060E945C061496EF
:100664000E94FC080FC002FF07C00E9468060E9497
:1006740077060E949F0806C00E9468060E947706BB
:1006840066277727EA87FB876C877D8702FF12C07E
:10069400AD85AA2342F40E946A060E9491080E9432
:1006A4006306EDE2ED8BED89E03019F01F5F4F5FDB
:1006B40001C00B7F342F00FD14C0151710F435173B
:1006C40008F00FC007FF08C002FF04C00B7F2D898C
:1006D400115001C020E301C020E20E9441065150A4
:1006E400ECCF141790F4006102FF06C00E9481064B
:1006F40009F0515011504150E0E3EA930E9456062C
:10070400503009F051504150ECCF312FEC89E0309A
:10071400B9F43030A1F003FF06C0EE85FF852591C2
:10072400EE87FF8705C0AE85BF852D91AE87BF8755
:100734000E944106503009F051503150EACF51C067
:100744000E9493060E94B7082E2F2A3030F003FF30
:1007540002C0295C01C0295A01C0205D04FD21C0EA
:10076400213360F4A889B9898A899B89A130E0E0A2
:10077400BE07E0E08E07E0E09E0709F40BC04317D4
:1007840040F4531710F000FF01C010C020E207FF2F
:1007940008C020E3006102FF04C00E94810609F042
:1007A40051500E944106503009F0515031500E947E
:1007B40093060E94E8080E946306EC89A889B98917
:1007C4008A899B89FF27662777270E94B7080E949A
:1007D4007C06E889F9896A897B890E94280909F0DD
:1007E400AFCF00FF08C0503031F05150E0E2EA933F
:1007F4000E945606F8CF10E00CCEAE81BF810E9455
:10080400F8080E943309EF966F960895FF92F82E28
:1008140026970E942E090E949C06309719F4EFEF48
:10082400FFEF23C0DE0116960E948D088D010E9401
:100834009C06EE83FF83E0E0E887E987DE011A96F1
:100844000E948D080E94F808FA93EA931A930A9377
:10085400E2EEF0E0FA93EA93DE011A96BDDD9F0121
:10086400AE81BF81E0E0EC93F9010E9435092A963C
:10087400FF900895AA93E8B3EF70AE2FE881E07F6C
:10088400EA2BE8BB8DE08A95F1F7C19A8DE08A9551
:10089400F1F7C1988DE08A95F1F777C0AA93A88102
:1008A400E9DFE881E295E883A881E4DF85E88A95B9
:1008B400F1F76BC0AA93E881F0E0EB57FD4FE081BC
:1008C400A981AE0FEBDF5980488022960895A2E0FB
:1008D4000E94A306ACE0E2DFA1E00E94A306E0E0F0
:1008E4004E2E5E2E0895AA93A881AA3011F05714B3
:1008F40048F0E0E0EA934394A42DDCDFA881AA3019
:1009040009F443C05394C09AA881C8DFC0983DC07D
:10091400BA93AA931A93A981BA81ED91A983BA8350
:100924001E2FE03019F0A12FDEDFF5CF18812396BA
:100934000895AA93E7B3E06FE7BBB99AB89ABA9A55
:10094400C198C098C2987880E881E058E093870203
:10095400E881E054E0938802A4E1B0E00E94DA0662
:100964000E94A9060E94A9060E94A906A0E282DFAD
:1009740088EC90E00197F1F7A8E290DFA4E08EDF25
:10098400A5E88CDFA6E08ADFA2DF21960895BA935A
:10099400AA93E991F991A991B991CD0105900D928C
:1009A4000020E1F7FC010895BA93AA93A991B991A3
:1009B400EE27FF276D91662311F03196FBCF089542
:1009C400BA93AA93AA27BB27E991F991059000202D
:1009D40011F01196FBCFFD0108950E9416097B8149
:1009E4006A81F981E88177FB770F67FD7160972F42
:1009F4009E5781F078F0983190F4AA27BB27882776
:100A040008948795B795A7959A95D1F7EA23FB2380
:100A1400682305C0E8947727EE27FF2766276F77BA
:100A2400769508F4606877F9A991B99189919991BB
:100A3400EA17FB076807790797FB08950E941609D0
:100A44000E9407090E94EF040E940C0919F40E94F5
:100A5400020909C0E6F70E940209A0E0B0E080E8BC
:100A64009FE30E94830724960895A6D0E0E0EA83DA
:100A7400EFE3EB831A930A93EB85FC85EF3FAFEF2B
:100A8400FA0731F46CD1ACE7B0E00E94C9048AC023
:100A9400EF3FAFE7FA0731F462D1ADE7B0E00E946F
:100AA400C90480C0AC85AA2352F4E985FA856B8514
:100AB4007C850E94E40658D15CD1EDE2EC93A885D4
:100AC400A73010F0E6E0E8871885E12F1150E030F8
:100AD40021F056D1B6D059D1F8CF5CD10E948A0703
:100AE40043D110E0E0E0F0E060E87FE34ED152D182
:100AF4000E946D0868F044D191D047D11F5F17322E
:100B040030F02DD1A1E8B0E00E94C9044BC0EFCF72
:100B1400103021F42ED1E0E3EC9320C0E12F1150EA
:100B2400E030E1F02DD18DD085D0DF01CB010E94E2
:100B340020052BD12FD10E9428080E9417070E2FC1
:100B440018D18DD0F0E01CD10E949F080E9450075C
:100B54000E94DA0728D188D007D1E0CFE885E030B9
:100B6400E9F007D1EEE2EC93E885E150E887EF5F26
:100B7400A9F019D153D0F8D0E985FA856B857C8525
:100B84000E9417070E2FF5D06AD0F0E00CD10E9416
:100B94009F080E94500768D0E7D0E6CFAE81BF819E
:100BA400E0E0EC93198108812D960895ED91FD9173
:100BB4003196FE93EE930895BA93AA932497E0E0B6
:100BC400E883E9830895AC81BD818E819F81E0E053
:100BD400F0E060E271E40E94DA07EC83FD836E8347
:100BE4007F830895EC81FD816E817F81AC85BD8515
:100BF4008E859F850E946D080895AC85BD858E8580
:100C04009F850895EDECFCEC6CEC7DE30E94DA0723
:100C1400EC87FD876E877F873F5F0895E0E0F0E013
:100C240060E271E40E94DA070895EC87FD876E871D
:100C34007F870895A0E0B0E080E09FE30E948A07E8
:100C44000895EDECFCEC6CEC7DE30E94DA0708956A
:100C5400A885B9851196A887B98711970895E02FBB
:100C6400E05DEC93E02F08950E941B090E94830726
:100C74000895E885F9853196E887F98708952A93D8
:100C8400AF81B885E985FA8509950895FE01E65A8C
:100C9400FF4F0190F081E02D08953497DE01A65AAC
:100CA400BF4FED93FC930895AF81B885E985FA852C
:100CB40009950895DE01A65ABF4F0D90BC91A02D51
:100CC4000895EA87FB876C877D870895DFDFE5CF8A
:100CD400EA85FB856C857D850895EE87FF87AE8563
:100CE400BF850E94D6041E2F0895E4DF14960E9447
:100CF400F8080895E88BF98B6A8B7B8B08950B7F3A
:100D0400ED89EA93DE01A95ABF4F0D90BC91A02D45
:100D1400FE01E75AFF4F0190F081E02D0995503014
:100D24000895E889F9896A897B89AA85BB858C85B8
:100D34009D850895DE011C960E948D080E94F80886
:100D440008950E945004A3E0B0E00C94DA06A0E3F6
:100D54000E943C0488EC90E00197F1F70895EE813D
:100D6400FF81FA93EA930895E987FA876B877C8772
:100D74000895AE81BF811196AE83BF831197089504
:100D8400AA81BB818C819D810895EA83FB836C8356
:100D94007D830895EA81FB816C817D81A985BA8573
:100DA4008B859C850895A985BA858B859C85089536
:100DB400109639F0A89580ED97E00197F1F7119717
:100DC400C9F7089530976040704009F0705808954D
:100DD400552342F4503811F4E0FF04C03196691FE2
:100DE400791F6BF050E8572711F45F93CFC05F3F32
:100DF40031F0660F000C57956795752F08955F9332
:100E040000200AF0CFC0C8C050E8192E1522880F60
:100E1400991F9527550F879550E8072E0522660FD1
:100E2400771F7527550F67950895689401C0E89456
:100E34005F93F2DF703818F07F3F08F4A7C056E1E3
:100E4400571BAAF4519558300EF4593030F0EFEF97
:100E5400FFEF6FEF7FE777F91AC077275523B9F0D3
:100E6400EE0FFF1F661F771F5A95D1F710C0772723
:100E7400583028F0EF2FF62F672F5850F9CF55230D
:100E840031F076956795F795E7955A95D1F7002057
:100E94000AF445D15F910895689401C0E8943097AD
:100EA40060407040B1F0002426F0772312F40094DF
:100EB40036D1172E7EE1112032F07A95EE0FFF1F06
:100EC400661F111CF9CFEF2FF62F612D5F938ADF78
:100ED4005F9108954F93AF01FD01DA01AB01BC01AD
:100EE400CA01402D012C142E4F910895EA0FFB1FC7
:100EF400681F0895E095F0956095EF5FFF4F6F4F81
:100F040008955F9381DF903871F150E8152604C08D
:100F14005F937ADF903839F1703821F1572F591BDC
:100F24002BF112F4D7DFFACF583118F0AA27BB27D8
:100F34008827583028F0AB2FB82F88275850F9CF7E
:100F4400552329F08695B795A7955A95D9F7502D2D
:100F5400512572F0CBDF38F46795F795E7957395D3
:100F640013F420C0B7DF3EDF5F910895D8F7FBCFBD
:100F7400EA1BFB0B680B51F010F40094BBDF6623F3
:100F840092F3EE0FFF1F661F7A95CBF7EE27FF272C
:100F9400662777275F910895EFEFFFEF6FE77FEF05
:100FA4005F910895EFEFFFEF6FE77FE75F9108959B
:100FB4005F932ADF703851F3903841F30124089489
:100FC400791F23F41CF300203AF3ECCF0F921F9304
:100FD4002F933F934F93112722279927689FA001AE
:100FE4008F9F302D410D591F6B9F300D411D591F8F
:100FF4008E9F27D0BF9F25D06A9F23D0BE9F1DD030
:10100400AF9F1BD0AE9F110D291F391F491F591FB8
:10101400E32FF42F652F522F4F913F912F911F9162
:101024000F9066232AF0550FEE1FFF1F661F02C0A4
:1010340073954BF2CDDE5F910895100D211D391F7C
:1010440002C0200D311D491F591F08955F93DCDE36
:10105400703821F411200AF49FCFA4CF903809F4FA
:1010640095CF01240894970B1BF4D4F30020F3CFFD
:10107400792F1F932F933F934F93112411272227E6
:1010840033274427552790E2AE17BF078607410749
:1010940030F0AE1BBF0B860B410B089401C0889443
:1010A400551F221F331F111CAA1FBB1F881F441F5B
:1010B4009A9551F7F901612D4F913F912F911F910D
:1010C400662332F0550FEE1FFF1F661F7A9543F219
:1010D4007FDE5F91089599239AF0772342F0971762
:1010E40048F029F4AE17BF07860720F031F0989432
:1010F4008894089598940894089518948894089569
:101104007723C2F7971798F3A9F7EA17FB0768073D
:1011140088F399F3ECCF0024AF0DB01D0895F0953A
:1011240060957095E195FF4F6F4F7F4F0895FE2FA7
:10113400FF0FFF0B6F2F7F2F08956F2F660F660B26
:10114400762F0895002498E0AA0F001C0E1A10F4BC
:101154000E0E01C0A1609A95B9F7EA2FA02D08954B
:1011640039D0F0DF0EF4E19508953F934F935F93E8
:10117400002411244427552730E2AA0FBB1F881FDF
:10118400991F001C111C441F551F0E1A1F0A460BE1
:10119400570B28F40E0E1F1E461F571F01C0A160D7
:1011A4003A9559F7FD01BC01D001CA015F914F91F5
:1011B4003F910895E894A7FF02C0A1956894E7FDC4
:1011C400E195C0DFEA2F0EF4E1950895CEDFFD012D
:1011D400BC010895E894E7FF02C0E1956894A7FF75
:1011E40004C0A19500F8039400FA0895ED91FC91D0
:1011F40011970895ED91FD916D917C911397089548
:10120400E881F9816A817B810895A881B9818A8105
:101214009B810895E883F9836A837B8308957A9395
:101224006A93FA93EA9308959A938A93BA93AA9342
:101234000895182E862F612D192E972F712D1B2E90
:10124400BF2FF12D1A2EAE2FE12D08953097604057
:10125400704008955A934A933A932A931A930A939F
:1012640008955D814C813B812A811981088108950B
:00000001FF
