:0E0000000C942A000C9400000C9400000C9448
:10000E0000000C9400000C9400000C9400000C9462
:10001E0000000C9400000C9400000C9400000C9452
:10002E0000000C9400000C9400000C9400000C9442
:10003E0000000C9400000C9400000C9400000C9432
:10004E0000000C940000F894EE27ECBBF1E0FBBF2F
:10005E00EBBFE5BF8DE0A2E0BB27ED938A95E9F7F4
:10006E0080E098E0A0E6ED930197E9F7EFE5EDBFAC
:10007E00E8E0EEBFC0E6D2E00C944500EFEFEABB3D
:10008E00E0E0EBBBEFEFE4BBE0E0E5BBEFEFE5BBA1
:10009E00EFE328D0E6E02FD0EBE536D0EFE43DD00D
:1000AE00E6E620D0EDE627D0EDE72ED0E7E035D01E
:1000BE00EFE718D0EFE61FD0EFE326D0E6E02DD025
:1000CE00EBE510D0EFE417D0E6E61ED0EDE625D036
:1000DE00EDE708D0E7E00FD0EFE716D0EFE61DD042
:1000EE00D7CFFFCFEBBBA898AAE0B0E00E949D004F
:1000FE00EFEFE5BB0895EBBBA998AAE0B0E00E9434
:10010E009D00EFEFE5BB0895EBBBAA98AAE0B0E027
:10011E000E949D00EFEFE5BB0895EBBBAB98AAE004
:10012E00B0E00E949D00EFEFE5BB0895109639F008
:10013E00A89584EF91E00197F1F71197C9F708950B
:00000001FF
