:0C0000000C946B000C9400000C940000A9
:10000C000C9400000C9400000C9400000C94000064
:10001C000C9400000C9400000C9400000C94000054
:10002C000C9400000C9400000C9400000C94000044
:10003C000C9400000C9400000C9400000C94000034
:10004C000C9400000C94000048656C6C6F20646587
:10005C006172212069276D204D485472587A2020F6
:10006C0020006861686168616861686168616861E5
:10007C00686168616861686168616861686168612C
:10008C00686168616861686168610025643A25642B
:10009C003A256420202025342E3266002D4E414E08
:1000AC00000080C001002D4E414E00494E4600001C
:1000BC001A006002540029007A026E000200D50278
:1000CC00AE000100DC02B0000000F894EE27ECBB9F
:1000DC00F1E0FBBFEBBFE5BF8DE0A2E0BB27ED93EA
:1000EC008A95E9F780E098E0A0E6ED930197E9F7AF
:1000FC00ECEBF0E085919591009761F0A591B591AD
:10010C0005901590BF01F00105900D920197E1F754
:10011C00FB01F0CFEFE5EDBFE8E0EEBFC0E6D2E0CB
:10012C000C949800E0E0EABBEBBBEFEFE7BBE0E040
:10013C00E8BBE4BBE5BBE1BBE2BBE3BFE2BFECBFAA
:10014C00EFBDEEBDEDBDECBDE7BDE6BDEBBDEABD63
:10015C00E9BDE8BDE2BDE5BDE4BDE3BDE9BFE5BF7A
:10016C00E4BFEAB9E0E8E8B9E0E0E0BFE6B9EDB930
:10017C00E6BFA8E20E942205E0E0E093A302E09330
:10018C00A402E093A502E093A602E093A702E093F9
:10019C00A8020E94E304A0E6B2E00E941105E0E090
:1001AC00EA93A1E00E94D204AAE7B2E00E941105F2
:1001BC00A3EAB2E00E945A06A091A302B091A40255
:1001CC00DC974CF0E0E0E093A302E093A402A5EAF4
:1001DC00B2E00E945A06A091A502B091A602DC974B
:1001EC004CF0E0E0E093A502E093A602A7EAB2E0AF
:1001FC000E945A06A091A702B091A80258972CF021
:10020C00E0E0E093A702E093A802E9E1EA93A0E022
:10021C000E94D204E091A302F091A4020E94600615
:10022C00DF01CB01E0E0F0E068EC72E40E94B4087E
:10023C00E093D102F093D2026093D3027093D40274
:10024C00E9EAF2E0FA93EA93E7E9F0E0FA93EA9349
:10025C00E091A702F091A8020E946506E091A50228
:10026C00F091A6020E946506E091A302F091A4020F
:10027C000E946506E091D102F091D2026091D30206
:10028C007091D4020E949D0980E10E947E046496C4
:10029C00A9EAB2E00E941105A4E6B0E00E9466074C
:1002AC0087CFFFCFBA93AA931A930A93AA81BB81E3
:1002BC0012960E948409309729F1AA81BB81149669
:1002CC000E9484098F01309761F00230E0E01E0734
:1002DC0080F0F80131978F01AA81BB811496ED93C0
:1002EC00FC93AA81BB8112960E945A063197AC816D
:1002FC00A083AA81BB810E948409FF2312F00E9473
:10030C005A0606C0AA81BB81EFEFFFEFED93FC9379
:10031C0019810881259608950E946A06E0E8EA830F
:10032C00EFE3EB830E94BA09EE85FF85EF3FAFEF59
:10033C00FA0749F4E885F985FA93EA93A8EAB0E05C
:10034C000E945105B7C0EF3FAFE7FA0749F4E885C3
:10035C00F985FA93EA93A9EAB0E00E945105AAC084
:10036C00AB85A73010F0E6E0EB871B85E12F115031
:10037C00E03019F00E947106F9CFEC85FD856E8591
:10038C007F850E94B40921F430E00E9471062DC0D3
:10039C003B850E94800609F008F40BC00E94710690
:1003AC000E94800628F00E948B060E949006F8CFCF
:1003BC000DC00E94800640F40E948B060E949C0691
:1003CC000E94A3063150F5CF0E947106EC85FD8585
:1003DC006E857F850E94A8060E94A3060E94800657
:1003EC0020F00E948B060E94900610E0EB85E1172E
:1003FC00A8F1AC81BD818E819F810E94AF060E94C5
:10040C00A806DF01CB010E94A805EC83FD836E8357
:10041C007F830E948B060E94B4080E94A3070E2FB4
:10042C000E94B6060E94BD06FF27662777270E940A
:10043C00DC07AC81BD818E819F810E9466080E9481
:10044C008B060E94C2060E94A306E12F1F5FE030BC
:10045C0069F60E94B606EEE2EC93C8CF0E94C7067E
:10046C003197AA85A08330302CF43195A885B985B5
:10047C00EDE203C0A885B985EBE2EC930E94C706B8
:10048C000E94C7063197BF01A32FEAE00E943E09E4
:10049C00E05DDB01EC930E94C7063197BF01A32FEF
:1004AC00EAE00E946809E05DDB01EC93A885B98560
:1004BC00E0E0EC930E94C10960960895BA93AA9368
:1004CC00EF9761970E94B80910E0FE01E85AFF4FC0
:1004DC000190F081E02DE887F987FE01EA5AFF4F81
:1004EC000190F081E02DEE83FF83AE81BF81E0E0CF
:1004FC00F0E0ED93FC93DE01A45ABF4F0E945A0624
:10050C003197E4912E2FE03009F4E9C1E12FE0306E
:10051C0039F4253211F411E002C00E94CD06DEC17F
:10052C00E130C1F4253219F40E94CD06D6C112E097
:10053C00E0E0ED8B00E02D3211F401E0CFC12B3265
:10054C0019F4EBE2ED8BCAC1203219F4E0E2ED8B29
:10055C00C5C102C0E23039F450E013E0203311F48D
:10056C000068BCC102C0E33091F4203310F02A3390
:10057C0008F007C0AAE05A9F502DE22FE0535E0FFF
:10058C00ADC140E02E3211F414E0A8C10FC0E4302C
:10059C0099F4203310F02A3308F008C00062AAE066
:1005AC004A9F402DE22FE0534E0F98C12C3619F480
:1005BC00026015E093C103C0E53009F08FC1E22F52
:1005CC00E33659F40E94D4060E94DB060E94D4063E
:1005DC00A481AA930E94E20680C1E53411F0E536AD
:1005EC0009F403C0E63609F048C0FE017696EE87A2
:1005FC00FF870E94E8060E9488090E94EF060E946D
:10060C00F406AD85AA2332F0AD89AB3259F0A03295
:10061C0081F017C00E94F6060E9470070E94EF0638
:10062C00EDE2ED8B07FF05C0ED89EA930E94E2062F
:10063C0008C0EE85FF853196EE87FF873197AD892F
:10064C00A08305FF46E0263651F40E94F6060E9470
:10065C009D094A93AB89BC890E94BF0509C00E94C1
:10066C00F6060E949D094A932A93AC89BD8954DEF3
:10067C00FE0176960E94FB061EC0E33739F40E94F9
:10068C00F4060E9403070E94FB060EC0E037C1F47B
:10069C000E94F4060E940307EE87FF87AE85BF8594
:1006AC000E946A051E2F08600F77403011F0411729
:1006BC0008F001C0142F40E0E0E0EC8B30E06DC09E
:1006CC00E43611F0E93611F4046002C0E537A1F408
:1006DC00EAE0EC8B01FF08C0E0E0FAEC6AE97BE3AE
:1006EC000E9408071AE022C0E0E1F7E260E070E047
:1006FC000E94080715E01AC0E83511F4086003C021
:10070C00E83709F0EAC0E0E1EC8B01FF08C0E0E05B
:10071C00F0E060E070E10E94080718E007C0E0E03C
:10072C00F0E160E070E00E94080714E0403011F046
:10073C000F7701C041E001FF08C00E94F4060E943F
:10074C00E80614960E9488090FC002FF07C00E9499
:10075C00F4060E9403070E942B0906C00E94F406AF
:10076C000E94030766277727EA87FB876C877D87BC
:10077C0002FF12C0AD85AA2342F40E94F6060E9425
:10078C001D090E94EF06EDE2ED8BED89E03019F0CA
:10079C001F5F4F5F01C00B7F342F00FD14C0151776
:1007AC0010F4351708F00FC007FF08C002FF04C093
:1007BC000B7F2D89115001C020E301C020E20E9463
:1007CC00CD065150ECCF141790F4006102FF06C017
:1007DC000E940D0709F0515011504150E0E3EA938B
:1007EC000E94E206503009F051504150ECCF312FAD
:1007FC00EC89E030B9F43030A1F003FF06C0EE858F
:10080C00FF852591EE87FF8705C0AE85BF852D91AD
:10081C00AE87BF870E94CD06503009F05150315041
:10082C00EACF51C00E941F070E9443092E2F2A3085
:10083C0030F003FF02C0295C01C0295A01C0205DC1
:10084C0004FD21C0213360F4A889B9898A899B8968
:10085C00A130E0E0BE07E0E08E07E0E09E0709F47F
:10086C000BC0431740F4531710F000FF01C010C029
:10087C0020E207FF08C020E3006102FF04C00E94D1
:10088C000D0709F051500E94CD06503009F051501F
:10089C0031500E941F070E9474090E94EF06EC89D8
:1008AC00A889B9898A899B89FF27662777270E949F
:1008BC0043090E940807E889F9896A897B890E94A3
:1008CC00B40909F0AFCF00FF08C0503031F05150DF
:1008DC00E0E2EA930E94E206F8CF10E00CCEAE8183
:1008EC00BF810E9484090E94BF09EF966F960895FC
:1008FC00FF92F82E26970E94BA090E94280730977B
:10090C0019F4EFEFFFEF23C0DE0116960E941909D0
:10091C008D010E942807EE83FF83E0E0E887E987DA
:10092C00DE011A960E9419090E948409FA93EA932F
:10093C001A930A93E8E5F1E0FA93EA93DE011A962A
:10094C00BDDD9F01AE81BF81E0E0EC93F9010E9417
:10095C00C1092A96FF900895AA93E8B3EF70AE2FC1
:10096C00E881E07FEA2BE8BB82E18A95F1F7C19A36
:10097C0082E18A95F1F7C19882E18A95F1F789C0F5
:10098C00AA93A881E9DFE881E295E883A881E4DFF6
:10099C0088EB8A95F1F77DC0AA93E881F0E0EB52E1
:1009AC00FD4FE081A981AE0FEBDFE981E093D90225
:1009BC00E881E093DA0222960895A2E00E942F07C4
:1009CC00ACE0DEDFA1E00E942F07E0E0E093DA026A
:1009DC00E093D9020895AA93A881AA3031F0E0914E
:1009EC00DB02A091D902AE1760F0E0E0EA93A0918F
:1009FC00DA02AF5FA093DA02CFDFA881AA3009F444
:100A0C0048C0E091D902EF5FE093D902C09AA88167
:100A1C00B7DFC0983EC0BA93AA931A93A981BA8142
:100A2C00ED91A983BA831E2FE03019F0A12FD3DFEB
:100A3C00F5CF188123960895AA93E7B3E06FE7BB2F
:100A4C00B99AB89ABA9AC198C098C298E881E093BA
:100A5C00DB02E058E093D702E881E054E093D8023F
:100A6C00A4E1B0E00E9466070E9435070E9435079A
:100A7C000E943507A0E270DF84E191E00197F1F765
:100A8C00A8E27EDFA4E07CDFA5E87ADFA6E078DFD1
:100A9C0094DF21960895BA93AA93E991F991A991BB
:100AAC00B991CD0105900D920020E1F7FC0108955C
:100ABC00BA93AA93A991B991EE27FF276D9166235A
:100ACC0011F03196FBCF0895BA93AA93AA27BB27AE
:100ADC00E991F9910590002011F01196FBCFFD01E1
:100AEC0008950E94A2097B816A81F981E88177FBD4
:100AFC00770F67FD7160972F9E5781F078F09831D2
:100B0C0090F4AA27BB27882708948795B795A795B3
:100B1C009A95D1F7EA23FB23682305C0E89477273D
:100B2C00EE27FF2766276F77769508F4606877F9CC
:100B3C00A991B99189919991EA17FB0768077907EF
:100B4C0097FB08950E94A2090E9493090E947705C1
:100B5C000E94980919F40E948E0909C0E6F70E94B8
:100B6C008E09A0E0B0E080E89FE30E940F08249675
:100B7C000895AAD0E0E0EA83EFE3EB831A930A939B
:100B8C00EB85FC85EF3FAFEFFA0731F470D1A2EBA8
:100B9C00B0E00E94510584C0EF3FAFE7FA0731F493
:100BAC0066D1A3EBB0E00E9451057AC0AC85AA23B4
:100BBC0052F4E985FA856B857C850E9470075CD1BF
:100BCC0060D1EDE2EC93A885A73010F0E6E0E88761
:100BDC001885E12F1150E03021F05AD1BAD05DD1F7
:100BEC00F8CF60D10E94160847D110E0E0E0F0E0A9
:100BFC0060E87FE352D156D10E94F90868F048D1E1
:100C0C0095D04BD11F5F173230F031D1A7EBB0E04C
:100C1C000E94510545C0EFCF103021F432D1E0E3F2
:100C2C00EC931DC0E12F1150E030C9F031D191D0BF
:100C3C0089D0DF01CB010E94A8052FD133D10E94AE
:100C4C00B4080E94A3070E2F1CD191D0F0E020D144
:100C5C0031D00E9466082FD18FD00ED1E3CFE8851A
:100C6C00E030D1F00ED1EEE2EC93E885E150E8876C
:100C7C00EF5F91F020D15AD0FFD0E985FA856B85D2
:100C8C007C850E94A3070E2FFCD071D0F0E013D10D
:100C9C0011D072D0F1D0E9CFAE81BF81E0E0EC93FE
:100CAC00198108812D960895ED91FD913196FE9351
:100CBC00EE9308950E942B090E94DC0708950E9470
:100CCC002B090E949D090895BA93AA932497E0E0FA
:100CDC00E883E9830895AC81BD818E819F81E0E03A
:100CEC00F0E060E271E40E946608EC83FD836E83A1
:100CFC007F830895EC81FD816E817F81AC85BD85FC
:100D0C008E859F850E94F9080895AC85BD858E85DA
:100D1C009F850895EDECFCEC6CEC7DE30E9466087D
:100D2C00EC87FD876E877F873F5F0895E0E0F0E0FA
:100D3C0060E271E40E9466080895EC87FD876E8777
:100D4C007F870895A0E0B0E080E09FE30E94160842
:100D5C000895EDECFCEC6CEC7DE30E9466080895C4
:100D6C00A885B9851196A887B98711970895E02FA2
:100D7C00E05DEC93E02F08950E94A7090E940F08F4
:100D8C000895E885F9853196E887F98708952A93BF
:100D9C00AF81B885E985FA8509950895FE01E65A73
:100DAC00FF4F0190F081E02D08953497DE01A65A93
:100DBC00BF4FED93FC930895AF81B885E985FA8513
:100DCC0009950895DE01A65ABF4F0D90BC91A02D38
:100DDC000895EA87FB876C877D870895DFDFE5CF71
:100DEC00EA85FB856C857D850895EE87FF87AE854A
:100DFC00BF850E945E051E2F0895E4DF14960E94A5
:100E0C0084090895E88BF98B6A8B7B8B08950B7F93
:100E1C00ED89EA93DE01A95ABF4F0D90BC91A02D2C
:100E2C00FE01E75AFF4F0190F081E02D09955030FB
:100E3C000895E889F9896A897B89AA85BB858C859F
:100E4C009D850895DE011C960E9419090E94840953
:100E5C0008950E94C604A3E0B0E00C946607A0E3DA
:100E6C000E94B20484E191E00197F1F70895EE81BC
:100E7C00FF81FA93EA930895E987FA876B877C8759
:100E8C000895AE81BF811196AE83BF8311970895EB
:100E9C00AA81BB818C819D810895EA83FB836C833D
:100EAC007D830895EA81FB816C817D81A985BA855A
:100EBC008B859C850895A985BA858B859C8508951D
:100ECC00109639F0A8958DEC9AE00197F1F71197EF
:100EDC00C9F7089530976040704009F07058089534
:100EEC00552342F4503811F4E0FF04C03196691FC9
:100EFC00791F6BF050E8572711F45F93CFC05F3F19
:100F0C0031F0660F000C57956795752F08955F9318
:100F1C0000200AF0CFC0C8C050E8192E1522880F47
:100F2C00991F9527550F879550E8072E0522660FB8
:100F3C00771F7527550F67950895689401C0E8943D
:100F4C005F93F2DF703818F07F3F08F4A7C056E1CA
:100F5C00571BAAF4519558300EF4593030F0EFEF7E
:100F6C00FFEF6FEF7FE777F91AC077275523B9F0BA
:100F7C00EE0FFF1F661F771F5A95D1F710C077270A
:100F8C00583028F0EF2FF62F672F5850F9CF5523F4
:100F9C0031F076956795F795E7955A95D1F700203E
:100FAC000AF445D15F910895689401C0E894309794
:100FBC0060407040B1F0002426F0772312F40094C6
:100FCC0036D1172E7EE1112032F07A95EE0FFF1FED
:100FDC00661F111CF9CFEF2FF62F612D5F938ADF5F
:100FEC005F9108954F93AF01FD01DA01AB01BC0194
:100FFC00CA01402D012C142E4F910895EA0FFB1FAE
:10100C00681F0895E095F0956095EF5FFF4F6F4F67
:10101C0008955F9381DF903871F150E8152604C074
:10102C005F937ADF903839F1703821F1572F591BC3
:10103C002BF112F4D7DFFACF583118F0AA27BB27BF
:10104C008827583028F0AB2FB82F88275850F9CF65
:10105C00552329F08695B795A7955A95D9F7502D14
:10106C00512572F0CBDF38F46795F795E7957395BA
:10107C0013F420C0B7DF3EDF5F910895D8F7FBCFA4
:10108C00EA1BFB0B680B51F010F40094BBDF6623DA
:10109C0092F3EE0FFF1F661F7A95CBF7EE27FF2713
:1010AC00662777275F910895EFEFFFEF6FE77FEFEC
:1010BC005F910895EFEFFFEF6FE77FE75F91089582
:1010CC005F932ADF703851F3903841F30124089470
:1010DC00791F23F41CF300203AF3ECCF0F921F93EB
:1010EC002F933F934F93112722279927689FA00195
:1010FC008F9F302D410D591F6B9F300D411D591F76
:10110C008E9F27D0BF9F25D06A9F23D0BE9F1DD016
:10111C00AF9F1BD0AE9F110D291F391F491F591F9F
:10112C00E32FF42F652F522F4F913F912F911F9149
:10113C000F9066232AF0550FEE1FFF1F661F02C08B
:10114C0073954BF2CDDE5F910895100D211D391F63
:10115C0002C0200D311D491F591F08955F93DCDE1D
:10116C00703821F411200AF49FCFA4CF903809F4E1
:10117C0095CF01240894970B1BF4D4F30020F3CFE4
:10118C00792F1F932F933F934F93112411272227CD
:10119C0033274427552790E2AE17BF078607410730
:1011AC0030F0AE1BBF0B860B410B089401C088942A
:1011BC00551F221F331F111CAA1FBB1F881F441F42
:1011CC009A9551F7F901612D4F913F912F911F91F4
:1011DC00662332F0550FEE1FFF1F661F7A9543F200
:1011EC007FDE5F91089599239AF0772342F0971749
:1011FC0048F029F4AE17BF07860720F031F0989419
:10120C00889408959894089408951894889408954F
:10121C007723C2F7971798F3A9F7EA17FB07680724
:10122C0088F399F3ECCF0024AF0DB01D0895F09521
:10123C0060957095E195FF4F6F4F7F4F0895FE2F8E
:10124C00FF0FFF0B6F2F7F2F08956F2F660F660B0D
:10125C00762F0895002498E0AA0F001C0E1A10F4A3
:10126C000E0E01C0A1609A95B9F7EA2FA02D089532
:10127C0039D0F0DF0EF4E19508953F934F935F93CF
:10128C00002411244427552730E2AA0FBB1F881FC6
:10129C00991F001C111C441F551F0E1A1F0A460BC8
:1012AC00570B28F40E0E1F1E461F571F01C0A160BE
:1012BC003A9559F7FD01BC01D001CA015F914F91DC
:1012CC003F910895E894A7FF02C0A1956894E7FDAB
:1012DC00E195C0DFEA2F0EF4E1950895CEDFFD0114
:1012EC00BC010895E894E7FF02C0E1956894A7FF5C
:1012FC0004C0A19500F8039400FA0895ED91FC91B7
:10130C0011970895ED91FD916D917C91139708952E
:10131C00E881F9816A817B810895A881B9818A81EC
:10132C009B810895E883F9836A837B8308957A937C
:10133C006A93FA93EA9308959A938A93BA93AA9329
:10134C000895182E862F612D192E972F712D1B2E77
:10135C00BF2FF12D1A2EAE2FE12D0895309760403E
:10136C00704008955A934A933A932A931A930A9386
:10137C0008955D814C813B812A81198108810895F2
:00000001FF
