:0C0000000C9468000C9400000C940000AC
:10000C000C9400000C9400000C9400000C94000064
:10001C000C9400000C9400000C9400000C94000054
:10002C000C9400000C9400000C9400000C94000044
:10003C000C9400000C9400000C9400000C94000034
:10004C000C9400000C9400001027E80364000A00D4
:10005C000100001000011000010048656C6C6F205D
:10006C0064656172212069276D204D485472587A5D
:10007C00202020006861686168616861686168615E
:10008C00686168616861686168616861686168611C
:10009C006861686168616861686168610025643ADB
:1000AC0025643A256420202025342E32660080C039
:1000BC001A006002660029007A0280000200CF025A
:1000CC00BA000000F894EE27ECBBF1E0FBBFEBBFED
:1000DC00E5BF8DE0A2E0BB27ED938A95E9F780E0C0
:1000EC0098E0A0E6ED930197E9F7ECEBF0E0859151
:1000FC009591009761F0A591B59105901590BF0170
:10010C00F00105900D920197E1F7FB01F0CFEFE5BF
:10011C00EDBFE8E0EEBFC0E6D2E00C949500E0E065
:10012C00EABBEBBBEFEFE7BBE0E0E8BBE4BBE5BB56
:10013C00E1BBE2BBE3BFE2BFECBFEFBDEEBDEDBD8B
:10014C00ECBDE7BDE6BDEBBDEABDE9BDE8BDE2BD7A
:10015C00E5BDE4BDE3BDE9BFE5BFE4BFEAB9E0E856
:10016C00E8B9E0E0E0BFE6B9EDB9E6BFA8E20E946D
:10017C003C034424552466247724882499240E9423
:10018C000A03A0E6B2E00E942B03E0E0EA93A1E0B0
:10019C000E94FD02AAE7B2E00E942B03F201319605
:1001AC002F01EBE3F0E0E415F5052CF44424552481
:1001BC00F30131963F01EBE3F0E0E615F7052CF483
:1001CC0066247724F40131964F01E7E1F0E0E8155D
:1001DC00F90514F488249924E9E1EA93A0E00E943B
:1001EC00FD02F2010E947E040E94FB03DF01CB01A1
:1001FC00E0E0F0E060E070E40E942904E093CB02C0
:10020C00F093CC026093CD027093CE02E3EAF2E05D
:10021C00FA93EA93E9EAF0E0FA93EA93F4010E9484
:10022C008303F3010E948303F2010E948303E09194
:10023C00CB02F091CC026091CD027091CE020E9463
:10024C008B0480E10E94A9026496A3EAB2E00E94AA
:10025C002B03A4E6B0E00E94C203A0CFFFCFBA9359
:10026C00AA931A930A93AA81BB8112960E948304C3
:10027C00309759F1AA81BB8114960E9483048F0197
:10028C00309761F00230E0E01E0798F0F8013197EA
:10029C008F01AA81BB811496ED93FC93AA81BB813B
:1002AC001296ED91FD913196FE93EE933197AC81C0
:1002BC00A083AA81BB810E948304FF232AF0ED91C5
:1002CC00FD913196FE93EE9306C0AA81BB81EFEFB0
:1002DC00FFEFED93FC931981088125960895BA934D
:1002EC00AA9326970E94900410E0AC85BD85E0E0AF
:1002FC00F0E0ED93FC93EA89FB893196EA8BFB8B5A
:10030C003197E4912E2FE03009F415C1E12FE03044
:10031C0039F4253211F411E002C00E9488030AC19D
:10032C00E130A9F4253219F40E94880302C112E0CD
:10033C0040E000E02D3211F401E0FCC02B3211F44E
:10034C004BE2F8C0203211F440E2F4C002C0E230BB
:10035C0039F450E013E0203311F40068EBC003C013
:10036C00E33009F0E7C0203310F02A3308F007C05F
:10037C00AAE05A9F502DE22FE0535E0FDBC0E22F14
:10038C00E33649F40E948F03E889F989A481AA9382
:10039C000E949503CEC0E33741F40E948F030E9464
:1003AC009B030E946A031E2F0AC0E03761F40E946F
:1003BC008F030E949B030E9476031E2F086002602D
:1003CC000F7730E034C0E43611F0E93611F40460F4
:1003DC0002C0E53731F4E4E5F0E0EE83FF8315E08D
:1003EC000CC0E83511F4086003C0E83709F0A1C06F
:1003FC00EEE5F0E0EE83FF8314E002FF14C00E94F0
:10040C008F030E94A503AB85AA233AF4EA85FB85EA
:10041C000E947204EA87FB874DE2403011F01F5FA7
:10042C0001C00B7F04C00E948F030E94A50300FD36
:10043C0011C0151778F407FF08C002FF04C00B7F2A
:10044C00242F115001C020E301C020E20E94880338
:10045C005150EFCF312F01FF17C03030A1F003FF07
:10046C0006C0EE81FF812591EE83FF8305C0AE812E
:10047C00BF812D91AE83BF830E948803503009F059
:10048C0051503150EACF4BC020E3EE81FF810E94E6
:10049C008704E887F987EE81FF813296EE83FF832C
:1004AC00E885F985AA85BB85AE17BF0750F02F5F8D
:1004BC00A885B985EA85FB85EA1BFB0BEA87FB87D8
:1004CC00EFCF2A3328F003FF02C0295F01C0295D5A
:1004DC0004FD1AC0213320F4A885B985119709F4BD
:1004EC0009C0531710F000FF01C013C020E207FF32
:1004FC000BC020E3006102FF07C00B7F4A930E94F0
:10050C009503503009F051500E948803503009F087
:10051C0051503150A885B985129708F0B5CF00FF1E
:10052C0008C0503031F05150E0E2EA930E9495033C
:10053C00F8CF10E0E0CEAC85BD850E9483040E940C
:10054C00970464960895FF92F82E26970E949204C1
:10055C000E94AD03309719F4EFEFFFEF23C0DE01DB
:10056C0016960E946E048D010E94AD03EE83FF83EC
:10057C00E0E0E887E987DE011A960E946E040E948B
:10058C008304FA93EA931A930A93E5E3F1E0FA935E
:10059C00EA93DE011A96A3DE9F01AE81BF81E0E0F3
:1005AC00EC93F9010E9499042A96FF900895AA935E
:1005BC00E8B3EF70AE2FE881E07FEA2BE8BB82E175
:1005CC008A95F1F7C19A82E18A95F1F7C19882E197
:1005DC008A95F1F777C0AA93A881E9DFE881E295C3
:1005EC00E883A881E4DF88EB8A95F1F76BC0AA93C6
:1005FC00E881F0E0E153FD4FE081A981AE0FEBDF24
:10060C00B980A88022960895A2E00E94B403ACE0C1
:10061C00E2DFA1E00E94B403E0E0AE2EBE2E08950E
:10062C00AA93A881AA3011F0BD1448F0E0E0EA9337
:10063C00A394AA2DDCDFA881AA3009F443C0B3949B
:10064C00C09AA881C8DFC0983DC0BA93AA931A93E8
:10065C00A981BA81ED91A983BA831E2FE03019F0DC
:10066C00A12FDEDFF5CF188123960895AA93E7B367
:10067C00E06FE7BBB99AB89ABA9AC198C098C29879
:10068C00D880E881E058E093D102E881E054E0930F
:10069C00D202A4E1B0E00E94C2030E94BA030E94FD
:1006AC00BA030E94BA03A0E282DF84E191E00197D1
:1006BC00F1F7A8E290DFA4E08EDFA5E88CDFA6E0DE
:1006CC008ADFA2DF21960895BA93AA93A991B991D2
:1006DC00EE27FF276D91662311F03196FBCF08951D
:1006EC00BA93AA93AA27BB27E991F9910590002008
:1006FC0011F01196FBCFFD0108950E947E040E941B
:10070C008B0408952A93AD85BE85EF85F8890995EC
:10071C000895E889F9893497E88BF98B0895AD85AC
:10072C00BE85EF85F88909950895A889B98914962D
:10073C000E948304EE83FF83AE81BF810895A88954
:10074C00B98914960E948304EA87FB870895DE0119
:10075C001C960E946E040E94830408950E94F1026C
:10076C00A3E0B0E00C94C203A0E30E94DD0284E19C
:10077C0091E00197F1F70895109639F0A8958DEC5A
:10078C009AE00197F1F71197C9F70895552342F4B0
:10079C00503811F4E0FF04C03196691F791F6BF0DB
:1007AC0050E8572711F45F933CC05F3F31F0660F60
:1007BC00000C57956795752F08955F9300200AF0EC
:1007CC003CC035C050E8192E1522880F991F95276B
:1007DC00550F879550E8072E0522660F771F752752
:1007EC00550F67950895689401C0E8943097604060
:1007FC007040B1F0002426F0772312F4009470D0EE
:10080C00172E7EE1112032F07A95EE0FFF1F661F36
:10081C00111CF9CFEF2FF62F612D5F93C1DF5F9184
:10082C000895EE27FF27662777275F910895EFEF4E
:10083C00FFEF6FE77FEF5F910895EFEFFFEF6FE74B
:10084C007FE75F9108955F93BDDF703821F411202D
:10085C000AF4EDCFF2CF903809F4E3CF01240894D9
:10086C00970B1BF4D4F30020F3CF792F1F932F9306
:10087C003F934F93112411272227332744275527C1
:10088C0090E2AE17BF078607410730F0AE1BBF0BD7
:10089C00860B410B089401C08894551F221F331FEF
:1008AC00111CAA1FBB1F881F441F9A9551F7F901F1
:1008BC00612D4F913F912F911F91662332F0550F6F
:1008CC00EE1FFF1F661F7A9543F260DF5F9108955C
:1008DC000024AF0DB01D0895F195E195F0400895F9
:1008EC00F09560957095E195FF4F6F4F7F4F089590
:1008FC006F2F660F660B762F0895ED91FC91119773
:10090C0008950590F491E02D08957A936A93FA93E3
:10091C00EA9308955A934A933A932A931A930A9313
:10092C0008955D814C813B812A811981088108954C
:00000001FF
