:020000000C945E
:1000020034000C9400000C9400000C9400000C943A
:1000120000000C9400000C9400000C9400000C945E
:1000220000000C9400000C9400000C9400000C944E
:1000320000000C9400000C9400000C9400000C943E
:1000420000000C9400000C9400000C9400000C942E
:10005200000001002D4E414E00494E4600000100B5
:10006200660254000000F894EE27ECBBF1E0FBBFFF
:10007200EBBFE5BF8DE0A2E0BB27ED938A95E9F7E0
:1000820080E098E0A0E6ED930197E9F7E0E6F0E082
:1000920085919591009761F0A591B5910590159084
:1000A200BF01F00105900D920197E1F7FB01F0CF3E
:1000B200EFE5EDBFE8E0EEBFC0E6D2E00C946100F0
:1000C200EFEFEABBE0E0E0936002E0936102A0910F
:1000D2006002B0916102A130E1E0BE07BCF5E0919F
:1000E2006002F09161020E944B030E940602ABED96
:1000F200BFE089EC9CE30E949002E0936202F093DD
:1001020063026093640270936502A0916202B091EF
:10011200630280916402909165020E94F100A0E066
:10012200B0E08EEF92E40E949002A0E0B0E08EEF89
:1001320092E40E9440020E94CD01EBBBA0E6B2E035
:10014200ED91FD913196FE93EE93C1CFBBCFFFCFE0
:100152000E945F037B816A81F981E88177FB770FD7
:1001620067FD7160972F9E5781F078F0983190F477
:10017200AA27BB27882708948795B795A7959A95AC
:10018200D1F7EA23FB23682305C0E8947727EE27FB
:10019200FF2766276F77769508F4606877F9A9914B
:1001A200B99189919991EA17FB076807790797FB3B
:1001B20008950E945F030E9455030E94A9000E94B5
:1001C2005A0319F40E94500309C0E6F70E94500333
:1001D200A0E0B0E080E89FE30E94390224960895EF
:1001E2000E945F0324971A9310E00E947D01E3E8C6
:1001F200F9EF62E27EE30E9490020E948201D9DF5F
:100202000E947D010E9464030E9439020E948201C1
:10021200E0E0F0E060E07FE30E94230309F008F4ED
:1002220009C00E948701A0E0B0E080E09FE30E9445
:100232008C0111E00E947D01E0E0F0E060E87EE3E5
:100242000E94230309F008F408C00E947D01E0E047
:10025200F0E060E07FE30E948C01103041F00E94E8
:1002620087010E949A01ED83FE836F8378870E9443
:1002720087010E947D010E949002E983FA836B83C9
:100282007C83A1EBB4EC86E292E40E949002DF014F
:10029200CB01EDE1F5EE6DE272E40E9464030E948F
:1002A20039020E949301ACE4B3E584E091E40E9438
:1002B20040020E947D010E9490027F936F93FF9300
:1002C200EF93E981FA816B817C81A1E1BDEE8EED34
:1002D2009FE30E9440020E949301AEE5BBE788EAD9
:1002E2009FE30E944002AF91BF918F919F910E9424
:1002F200DE02188129960895AD81BE818F8198858D
:100302000895ED83FE836F837887F6CFED81FE81BA
:100312006F81788508950E943902ED83FE836F8391
:1003220078870895A981BA818B819C810E9490026D
:10033200089530976040704009F070580895552331
:1003420042F4503811F4E0FF04C03196691F791F5E
:100352006BF050E8572711F45F93CFC05F3F31F045
:10036200660F000C57956795752F08955F930020CF
:100372000AF0CFC0C8C050E8192E1522880F991F65
:100382009527550F879550E8072E0522660F771F90
:100392007527550F67950895689401C0E8945F9397
:1003A200F2DF703818F07F3F08F4A7C056E1571B00
:1003B200AAF4519558300EF4593030F0EFEFFFEFB8
:1003C2006FEF7FE777F91AC077275523B9F0EE0F61
:1003D200FF1F661F771F5A95D1F710C07727583035
:1003E20028F0EF2FF62F672F5850F9CF552331F011
:1003F20076956795F795E7955A95D1F700200AF417
:1004020041D15F910895689401C0E89430976040AB
:100412007040B1F0002426F0772312F4009432D118
:10042200172E7EE1112032F07A95EE0FFF1F661F24
:10043200111CF9CFEF2FF62F612D5F938ADF5F91A9
:1004420008954F93AF01FD01DA01AB01BC01CA016E
:10045200402D012C142E4F910895EA0FFB1F681FA7
:100462000895E095F0956095EF5FFF4F6F4F089507
:100472005F9381DF903871F150E8152604C05F93D5
:100482007ADF903839F1703821F1572F591B2BF14F
:1004920012F4D7DFFACF583118F0AA27BB278827E2
:1004A200583028F0AB2FB82F88275850F9CF552352
:1004B20029F08695B795A7955A95D9F7502D5125CC
:1004C20072F0CBDF38F46795F795E795739513F4DF
:1004D20020C0B7DF3EDF5F910895D8F7FBCFEA1B5C
:1004E200FB0B680B51F010F40094BBDF662392F310
:1004F200EE0FFF1F661F7A95CBF7EE27FF276627C1
:1005020077275F910895EFEFFFEF6FE77FEF5F913E
:100512000895EFEFFFEF6FE77FE75F9108955F9335
:100522002ADF703851F3903841F301240894791F7F
:1005320023F41CF300203AF3ECCF0F921F932F9376
:100542003F934F93112722279927689FA0018F9FDE
:10055200302D410D591F6B9F300D411D591F8E9F2C
:1005620027D0BF9F25D06A9F23D0BE9F1DD0AF9FAB
:100572001BD0AE9F110D291F391F491F591FE32F91
:10058200F42F652F522F4F913F912F911F910F9072
:1005920066232AF0550FEE1FFF1F661F02C07395D8
:1005A2004BF2CDDE5F910895100D211D391F02C05F
:1005B200200D311D491F591F08955F93DCDE7038ED
:1005C20021F411200AF49FCFA4CF903809F495CFDB
:1005D20001240894970B1BF4D4F30020F3CF792F56
:1005E2001F932F933F934F931124112722273327D1
:1005F2004427552790E2AE17BF078607410730F020
:10060200AE1BBF0B860B410B089401C08894551F8B
:10061200221F331F111CAA1FBB1F881F441F9A953C
:1006220051F7F901612D4F913F912F911F9166234F
:1006320032F0550FEE1FFF1F661F7A9543F27FDEE1
:100642005F91089599239AF0772342F0971748F023
:1006520029F4AE17BF07860720F031F098948894EA
:100662000895989408940895189488940895772387
:10067200C2F7971798F3A9F7EA17FB07680788F3F9
:1006820099F3ECCFF09560957095E195FF4F6F4F20
:100692007F4F08956F2F660F660B762F0895E881BE
:1006A200F9816A817B810895A881B9818A819B81C0
:1006B2000895E883F9836A837B8308959A938A93E2
:1006C200BA93AA930895182E862F612D192E972F6B
:1006D200712D1B2EBF2FF12D1A2EAE2FE12D089555
:00000001FF
