:0A0000000C9433000C9400000C94E3
:10000A0000000C9400000C9400000C9400000C9466
:10001A0000000C9400000C9400000C9400000C9456
:10002A0000000C9400000C9400000C9400000C9446
:10003A0000000C9400000C9400000C9400000C9436
:10004A0000000C9400000C9400003F065B4F666DA4
:10005A007D077F6F0A00600254000000F894EE27C3
:10006A00ECBBF1E0FBBFEBBFE5BF8DE0A2E0BB2735
:10007A00ED938A95E9F780E098E0A0E6ED93019781
:10008A00E9F7EEE5F0E085919591009761F0A59189
:10009A00B59105901590BF01F00105900D92019759
:1000AA00E1F7FB01F0CFEFE5EDBFE8E0EEBFC0E618
:1000BA00D2E00C94AA00BA93AA93E881F981309706
:1000CA0031F4EB81F0E0E05AFD4FE08106C0EB81AC
:1000DA00F0E0E05AFD4FE081E058EBBBEA81E150E5
:1000EA00A1E00E946901E095E5BBB0E00E945B01D6
:1000FA00EFEFE5BBA0E0B0E00E945B012496089513
:10010A00E0917202EA93E1E0A4D0E0917402EA93EA
:10011A00E2E0EA93A1E0B0E0CEDFE0917602EA9372
:10012A00E3E097D0E0917802EA93E4E0EA93A1E071
:10013A00B0E0C1DFE0917A02EA93E5E08AD0E0918B
:10014A007C02EA93E6E085D0089500E010E0EFEF44
:10015A00EABBE0E0EBBBE7BBE8BBEFEFE4BBE0E008
:10016A00E5BBEFEFE1BB809B05C0E0E0E0936A02EC
:10017A00E0936B02819B02C070D0C2DF829B02C0F7
:10018A0074D0BEDFB09B04C000240016010609F03B
:10019A0009C0A0E7B2E0ED91FD913196FE93EE938E
:1001AA0001E010E0B09902C000E010E0A0917002F6
:1001BA00B0917102159764F0E0E0E0937002E09369
:1001CA007102AAE6B2E0ED91FD913196FE93EE93AB
:1001DA0054D0DC9734F0E0E0E0936A02E0936B02DB
:1001EA003CD050D0DC9734F0E0E0E0936C02E0932E
:1001FA006D023BD04CD058972CF0E0E0E0936E02B1
:10020A00E0936F0244D048D0E0937202F0937302F5
:10021A003ED047D0E0937402F093750233D03CD0BD
:10022A00E0937602F09377022DD03BD0E0937802E8
:10023A00F093790222D030D0E0937A02F0937B02D5
:10024A001CD02FD0E0937C02F0937D0259DF8BCF34
:10025A00FFCFEA93A0E0B0E02ECFACE6B2E0ED919A
:10026A00FD913196FE93EE930895AEE6B2E0ED91DC
:10027A00FD913196FE93EE930895A0916A02B09192
:10028A006B020895A0916C02B0916D020895A0913D
:10029A006E02B0916F020895EAE0F0E00E948401D4
:1002AA000895EAE0F0E00E9489010895109639F075
:1002BA00A8958DEC9AE00197F1F71197C9F708957F
:1002CA00F195E195F0400895EE230E2EEA2F19F0EC
:1002DA00EE0F0A94E9F708950024112490E1AA0F79
:1002EA00BB1F001C111C0E1A1F0A18F40E0E1F1E2B
:1002FA0001C0A1609A9599F7FD01D001089512D025
:10030A00EBDF0EF4DDDF0895E894B7FF04C0A09593
:10031A00B09511966894F7FDD3DFDEDFFD010EF488
:10032A00CFDF0895E894F7FF02C0CADF6894B7FFE9
:10033A0006C0A095B095119600F8039400FA0895A6
:00000001FF
